:1000000012C12CC12BC12AC129C128C1A7C226C136
:1000100025C10CC723C13EC216C263C21FC11EC187
:100020001DC11CC11BC100C1814001C0804101C074
:10003000804100C1814001C0804100C1814000C1B8
:10004000814001C0804101C0804100C1814000C1A8
:10005000814001C0804100C1814001C0804101C098
:10006000804100C1814001C0804100C1814000C188
:10007000814001C0804100C1814001C0804101C078
:10008000804100C1814000C1814001C0804101C068
:10009000804100C1814001C0804100C1814000C158
:1000A000814001C0804101C0804100C1814000C148
:1000B000814001C0804100C1814001C0804101C038
:1000C000804100C1814000C1814001C0804101C028
:1000D000804100C1814001C0804100C1814000C118
:1000E000814001C0804100C1814001C0804101C008
:1000F000804100C1814001C0804100C1814000C1F8
:10010000814001C0804101C0804100C1814000C1E7
:10011000814001C0804100C1814001C0804101C0D7
:10012000804100C1814000C0C101C30302C2C606B4
:1001300007C705C5C404CC0C0DCD0FCFCE0E0ACA1F
:10014000CB0BC90908C8D81819D91BDBDA1A1EDE6F
:10015000DF1FDD1D1CDC14D4D515D71716D6D2121F
:1001600013D311D1D010F03031F133F3F23236F62F
:10017000F737F53534F43CFCFD3DFF3F3EFEFA3ADF
:100180003BFB39F9F83828E8E929EB2B2AEAEE2E6F
:100190002FEF2DEDEC2CE42425E527E7E62622E2DF
:1001A000E323E12120E0A06061A163A3A26266A62F
:1001B000A767A56564A46CACAD6DAF6F6EAEAA6A9F
:1001C0006BAB69A9A86878B8B979BB7B7ABABE7EEF
:1001D0007FBF7DBDBC7CB47475B577B7B67672B29F
:1001E000B373B17170B0509091519353529296562F
:1001F0005797559594549C5C5D9D5F9F9E5E5A9A5F
:100200009B5B99595898884849894B8B8A4A4E8EEE
:100210008F4F8D4D4C8C448485458747468682425E
:1002200043834181804011241FBECFE5D4E0DEBF6F
:10023000CDBF10E0A0E6B0E0E8E2F8E102C0059032
:100240000D92AC3AB107D9F712E0ACEAB0E001C0C8
:100250001D92AC37B107E1F702D0E4CAD1CEEF92DC
:100260000F931F93A1D680E062E040E000E016E922
:1002700020E030E0EE2499D1789443D264D280918A
:10028000AC008F5F8093AC008091B0008093AD0094
:100290008091B000882391F38091B00090E0A6D7C0
:1002A0001092B000EBCF222319F56A307105F1F5F9
:1002B00042305105D9F52091AE00322F3F5F309387
:1002C000AE002F3F29F42091AF002F5F2093AF00A5
:1002D00040E009C0F901E455FF4F5081280F391F54
:1002E000F90150834F5F242F30E0443099F71AC052
:1002F0002130C1F464317105C9F44F335105A0F4C4
:10030000440F551F60E009C0FC01E20FF31F70812C
:1003100020553F4FF90170836F5F262F30E024177F
:10032000350790F380E0089584E0089584E008950F
:10033000DC014FEF5FEF0FC02D91842F822790E0FB
:10034000FC01EA5DFF4F449145278A5D9E4FFC0109
:100350005491615070406115710571F7352F20E09F
:10036000E42FF0E0E22BF32BCF01089510922C0143
:1003700081E0089591E090932C0180932D0181E01C
:10038000089520912C01222341F020912D01FC01A0
:10039000208310922C0181E0089580E008959AB1A5
:1003A00098649AB9882319F08AB1806902C08AB129
:1003B0008F768AB9662329F08AB188628AB9929ABF
:1003C000089555980895CF92DF92EF92FF920F9380
:1003D0001F936A017B01122F84E0CC0CDD1CEE1C04
:1003E000FF1C8A95D1F760E070E880E790E0A701F4
:1003F000960135D7215029B9033030F4E02FF0E0D1
:10040000E05AFF4F808101C080E0173021F01830A2
:1004100019F4866001C08460806880BD80E060E07F
:10042000BEDF8A9A929881E01F910F91FF90EF9022
:10043000DF90CF9008958CB981E008952CB1FC0134
:10044000208381E008951F920F920FB60F9211241E
:100450002F933F934F935F936F937F938F939F93CC
:10046000AF93BF93EF93FF93E0916C01F0916D0117
:100470000995FF91EF91BF91AF919F918F917F91DE
:100480006F915F914F913F912F910F900FBE0F9001
:100490001F9018951F920F920FB60F9211242F9351
:1004A0003F934F935F936F937F938F939F93AF93FC
:1004B000BF93EF93FF93E0917001F0917101099563
:1004C000FF91EF91BF91AF919F918F917F916F912C
:1004D0005F914F913F912F910F900FBE0F901F9002
:1004E00018951F920F920FB60F92112492980F90A9
:1004F0000FBE0F901F9018951DBC1CBC80912E0143
:1005000090912F01009729F029B7206129BF9BBD49
:100510008ABD8EB585608EBD08958EB58A7F8EBDED
:1005200089B78F7E89BF88B7806188BF0895BC0175
:1005300080E090E020E23CE140E050E071D620E233
:100540003EE440E050E08BD630932F0120932E0103
:100550001FBC1EBC1FBCE1DF81E008951F920F92FB
:100560000FB60F9211242F933F934F935F936F9386
:100570007F938F939F93AF93BF93EF93FF93E091FC
:100580006E01F0916F010995FF91EF91BF91AF91CD
:100590009F918F917F916F915F914F913F912F919B
:1005A0000F900FBE0F901F901895EF920F931F930F
:1005B000982F862F642FA90198010E2D782F715046
:1005C000773F08F03FC0809332019923D9F5E5E6E3
:1005D000F4E0F0933F01E0933E01EEE6F4E0F093A7
:1005E0003D01E0933C01EAEAF4E0F0933401E0934A
:1005F0003301E5E7F4E0F0933101E093300110922C
:10060000410110924001E5EFF4E0F0937101E093B5
:100610007001ECE3F5E0F0936D01E0936C01E4E729
:10062000F5E0F0936F01E0936E0119D1082F882354
:1006300061F49CDE882341F01092420181E08093B6
:10064000630003C002E001C003E0802F1F910F91FF
:10065000EF90089518160CF041C0F89461157105DB
:1006600011F1E5E6F0E020E030E0408151814115F4
:10067000510519F04617570771F4F901EE0FFF1FE6
:10068000E20FF31FEC59FF4F8083728361832031A7
:10069000310509F506C02F5F3F4F339620313105F4
:1006A00021F784E019C0E4E6F0E020E030E090813A
:1006B000981759F4F901EE0FFF1FE20FF31FEC59E1
:1006C000FF4F10821282118206C02F5F3F4F339678
:1006D0002031310561F780E07894089582E0089533
:1006E00080916300813049F4E0914001F091410133
:1006F000309729F0099580E0089586E0089580E01C
:10070000089580916300813049F4E0913E01F091B9
:100710003F0109951092630080E0089586E00895F6
:1007200080916300882349F4E0913C01F0913D0100
:10073000099581E08093630002C0813011F480E06C
:10074000089586E00895DF93CF930F92CDB7DEB77B
:1007500080916300882309F07BC0CE01019611DEF1
:10076000813009F077C09981913021F0923009F001
:1007700071C01AC0E0913001F091310189E391E03C
:100780006AE371E046E351E00995882309F062C00D
:100790008091390190913201891719F0882309F06D
:1007A00059C082E0E7DD56C0A0913A01B0913B010B
:1007B0009C919093380180933501E4E6F0E020E0CD
:1007C00030E080818823C9F0891789F4F901EE0FA0
:1007D000FF1FE20FF31FEC59FF4F0180F281E02D64
:1007E000CD0166E371E009958093350106C02F5F66
:1007F0003F4F33962031310521F78091390188230D
:1008000049F190913501992399F0E0913A01F091E5
:100810003B018091380180688083E0913A01F0913A
:100820003B01918382E090E0909337018093360101
:1008300060913A0170913B0140913601509137012E
:10084000E0913301F091340180913201099502C0A9
:1008500086E001C080E00F90CF91DF910895CF92A4
:10086000DF92EF92FF920F93862F69017A01F8943D
:10087000BA01A90128E0A7DD8130F9F481E0C816AA
:100880008BE4D80680E0E80680E0F80660F4A70173
:100890009601220F331F441F551F60EA7FE787E14F
:1008A00090E0DDD404C023E230E040E050E0C90134
:1008B0003EDE813011F480E001C083E078940F9136
:1008C000FF90EF90DF90CF900895F894109243013D
:1008D00081E060E064DD10DE78940895F89480E0B3
:1008E00060E05DDD1ADE78940895EF92FF920F9339
:1008F0001F93CF93DF938C017B01EA01F8948091E1
:10090000490190914A0184309105D8F060914901E4
:1009100070914A0186E791E00BDD009791F4809198
:100920007601F80180838091490190914A010397F3
:100930009983888387E791E0F7019183808380E042
:1009400001C085E07894DF91CF911F910F91FF90C6
:10095000EF9008951F93F89410914301113009F01E
:1009600040C0FB013197F0934801E093470121E03B
:1009700030E030934601209345018083809145010A
:1009800090914601840F951F9093460180934501F5
:100990006091450170914601CF01CADC492F209139
:1009A000450130914601F901EA58FE4F80832F5FDF
:1009B0003F4F30934601209345018091450190912E
:1009C0004601FC01EA58FE4F408301969093460190
:1009D000809345011093440180E061E0E0DC80E019
:1009E00001C085E078941F910895DF93CF930F9213
:1009F000CDB7DEB7CE01019621DD80914301813074
:100A000039F0813098F18230B9F0833081F52EC011
:100A100010924A01109249018091490190914A0136
:100A20002981FC01EA58FE4F2083019690934A01E8
:100A30008093490182E018C08091490190914A0158
:100A40008F3F910509F078F48091490190914A0116
:100A50002981FC01EA58FE4F2083019690934A01B8
:100A60008093490103C083E08093430145DD80E02A
:100A70000F90CF91DF9108951F93809144018823B7
:100A800019F0813069F504C081E060E088DC28C09D
:100A900080914501909146010097C9F0E09147018E
:100AA000F09148018081C7DC809147019091480115
:100AB0000196909348018093470180914501909160
:100AC00046010197909346018093450109C083E058
:100AD00051DC182F81E060E062DC1092440101C01B
:100AE00010E0812F1F910895DF93CF930F92CDB720
:100AF000DEB780914301882319F0823031F402C0BF
:100B000080E001C081E036DC01C080E0898305DD42
:100B100091E09093430189810F90CF91DF910895E7
:100B2000FB01208131812530310591F4FC013181B7
:100B300020E0628170E0622B732B6F5F7F4F039622
:100B400041E050E021E0AFDB882321F065D108953A
:100B500083E0089580E00895CF93DF93FC01EB01DB
:100B6000888199818630910538F121816281938154
:100B700080E0448150E0482B592B3581CA01019710
:100B800088379105C8F4842F880F3817A9F4922F5D
:100B900080E070E0682B792B6F5F7F4FCF01069666
:100BA00021E081DB882311F037D107C085E090E098
:100BB0009983888380E001C083E0DF91CF9108951D
:100BC0000F931F93CF93DF93FC01EB0188819981F1
:100BD00085309105B9F5CF0101965181628144813B
:100BE000042F10E09801215030402D37310550F589
:100BF0001982188223E02083288139812F5F3F4F9B
:100C000039832883440F4183288139812F5F3F4FE7
:100C100039832883352F20E070E0622B732B6F5FC0
:100C20007F4F0196A8013FDB882311F0F5D00BC060
:100C3000000F111F88819981800F911F99838883EC
:100C400080E001C083E0DF91CF911F910F91089563
:100C5000AF92BF92CF92DF92EF92FF920F931F93CA
:100C6000CF93DF93EC018B01FB01808191818A306E
:100C7000910508F466C06E010894C11CD11CB980AE
:100C8000AA809B8180E0EC80FF24E82AF92A7D81FC
:100C90006E819F81488589859701215030402D378D
:100CA000310508F050C0392F20E050E0422B532B83
:100CB0004115510509F447C04A37510508F043C0B2
:100CC0009A01220F331F90E028173907E1F5972F7B
:100CD00080E070E0682B792B6F5F7F4FCE010A9622
:100CE00021E0E1DA882359F5F8011182108287E1C9
:100CF0008883808191810196918380838E2D880FD6
:100D00008983808191810196918380839B2D80E0EE
:100D10006A2D70E0682B792B6F5F7F4FC6010196BB
:100D2000A70120E0C0DA882351F4EE0CFF1CF80183
:100D3000808191818E0D9F1D9183808302C06CD034
:100D400003C080E001C083E0DF91CF911F910F913C
:100D5000FF90EF90DF90CF90BF90AF900895CF932A
:100D6000DF9330E0EB0153E0D695C7955A95E1F754
:100D700067707070E1E0F0E002C0EE0FFF1F4A956F
:100D8000E2F73197DC01AC0FBD1F4C9150E021968A
:100D9000C80FD91F988180E0482B592B062E02C01E
:100DA000EE0FFF1F0A94E2F7E095F0954E235F23C4
:100DB00002C0220F331F6A95E2F7422B532B4C934C
:100DC0005883DF91CF9108959B01F3E036952795E5
:100DD000FA95E1F7DC01A20FB31F8C9190E0119618
:100DE000FC911197E0E08E2B9F2BE3E0220F331F45
:100DF000EA95E1F7621B730B02C0969587956A9599
:100E0000E2F721E030E002C0220F331F4A95E2F7FB
:100E10002150304082230895883030F4E82FF0E0EC
:100E2000EC56FF4F8081089584E008951F920F9241
:100E30000FB60F9211242F933F938F939F93EF93AD
:100E4000FF9382B7805282BF8091530190915401E9
:100E50000197909354018093530180914B01882313
:100E600059F180914C01815080934C0180914C014B
:100E7000882311F580914E0190914F0180FF02C0AF
:100E8000C09A01C0C09880914E0190914F019695F3
:100E9000879590934F0180934E0183E080934C019E
:100EA00080914D01815080934D0180914D018823A7
:100EB00019F410924B01C09A80915001882309F0D7
:100EC00068C080916601882321F18091670181507B
:100ED00080936701882309F05CC01092660110922C
:100EE000650180916A01823C09F453C0E09152018E
:100EF000F0E0EB5AFE4F8083809152018F5F809328
:100F0000520180915201803108F443C01092520185
:100F100040C080916501882399F486B381FD39C072
:100F200081E08093650110926B0110926A0194E058
:100F3000909367019AE0909368018093690129C0BA
:100F400080916701815080936701882311F583E0C8
:100F50008093670186B381FF0DC02091690130E065
:100F600080916A0190916B01822B932B90936B017E
:100F700080936A0180916901880F80936901809153
:100F80006801815080936801882319F481E080937F
:100F90006601FF91EF919F918F913F912F910F905B
:100FA0000FBE0F901F90189510924B011092650183
:100FB0001092660110925001B998C19AB89AC09ADD
:100FC00082E083BF80EE82BF89B7816089BF0895C8
:100FD000FC018081918190935401809353010EC054
:100FE00080915301909154019C01215030403093E5
:100FF0005401209353018130910529F180915201D0
:1010000090915101981761F3A0915101B0E0AB5A52
:10101000BE4F8C91909151019F5F9093510190919F
:101020005101903110F010925101209153013091F3
:101030005401A90141505040509354014093530131
:101040002130310521F41182108280E008958A3028
:10105000A9F2823C99F20895109252011092510126
:101060000895909151012091520181E0291709F4CE
:1010700080E0089510925001089581E0809350011E
:10108000089590914B019923E1F793E090934C01DF
:101090009AE090934D0190E0880F991F9260909391
:1010A0004F0180934E0181E080934B010895EF92B0
:1010B000FF92CF93DF93E82EE7017E01F92EE7013F
:1010C00001C0DFDF89918823E1F7DF91CF91FF90A5
:1010D000EF9008958093AA008093A4000895FC01E6
:1010E000319686E020E030E09191290F311D81504A
:1010F000D9F7309521953F4FC901089580EA90E0D6
:10110000EEDF9093A7008093A80008950F931F939C
:10111000CF93DF93C0EAD0E00CE910E0899100D0D2
:1011200000D0EDB7FEB73196ADB7BEB712961C939F
:101130000E93119782831382B4D00F900F900F906B
:101140000F90B0E0CA3ADB0749F7DF91CF911F91CA
:101150000F910895CF93DF93C0EAD0E0899191DF9A
:1011600080E0CA3AD807D1F7DF91CF9108958093F4
:10117000A3007093A5006093A600C0DFEBDF089585
:101180008093A3001092A5001092A600B7DFE2DFC3
:101190000895682F88E070E0EADF0895BC0183E0DD
:1011A000E6DF089583E0ECDF089581E0E9DF08954C
:1011B00082E0E6DF0895BC0186E0D9DF0895BC0136
:1011C00087E0D5DF0895BC0189E0D1DF08958AE08A
:1011D000D7DF08958CE0D4DF08958DE0D1DF089546
:1011E0008EE0CEDF089586E1CBDF0895BC0182E179
:1011F000BEDF089561E070E0882311F060E070E0E8
:1012000089E1B5DF089561E070E0882311F060E0C6
:1012100070E081E1ACDF0895E0DF81E0EBDF08956D
:10122000629FD001739FF001829FE00DF11D649FCA
:10123000E00DF11D929FF00D839FF00D749FF00D56
:10124000659FF00D9927729FB00DE11DF91F639FF7
:10125000B00DE11DF91FBD01CF0111240895A1E2D8
:101260001A2EAA1BBB1BFD010DC0AA1FBB1FEE1F20
:10127000FF1FA217B307E407F50720F0A21BB30B6B
:10128000E40BF50B661F771F881F991F1A9469F7E7
:1012900060957095809590959B01AC01BD01CF0143
:1012A0000895A0E0B0E0E6E5F9E095C2FE013596CC
:1012B000619171918091780290917902AF0103D090
:1012C0002096E2E0A4C2ACE0B0E0E8E6F9E073C248
:1012D0006C011B018A01FC0117821682838181FF48
:1012E000C4C12E010894411C511CF6019381F101E7
:1012F00093FD859193FF81911F01882309F4B1C16A
:10130000853239F493FD859193FF81911F018532D8
:1013100021F490E0B601C5D1E8CFEE24FF2420E00F
:101320002032B0F48B3269F08C3228F4803251F0E4
:10133000833271F40BC08D3239F0803349F421606F
:101340002CC02260246029C0286027C0206125C0ED
:1013500027FD2CC0382F30533A3098F426FF08C0B0
:101360008E2D880FE82EEE0CEE0CE80EE30E15C065
:101370008F2D880FF82EFF0CFF0CF80EF30E206255
:101380000CC08E3221F426FD6CC1206406C08C3660
:1013900011F4206802C0883649F4F10193FD85916B
:1013A00093FF81911F01882309F0BACF982F95549C
:1013B000933018F09052933028F40C5F1F4FFFE3E6
:1013C000F9830DC0833631F0833771F0833509F02E
:1013D0005CC021C0F801808189830E5F1F4F4201EC
:1013E00071E0A72EB12C15C062E0662E712C600E44
:1013F000711EF8018080918026FF03C06E2D70E081
:1014000002C06FEF7FEFC4012C8740D15C018301E4
:101410002C852F7716C052E0652E712C600E711E40
:10142000F8018080918026FF03C06E2D70E002C01D
:101430006FEF7FEFC4012C871ED15C012C852068E3
:10144000830123FD1EC007C080E290E0B6012C8717
:1014500028D1FA942C858F2D90E0A816B906A0F318
:1014600010C0F40127FD859127FF81914F0190E085
:10147000B6012C8716D12C85F110FA940894A10896
:10148000B108A114B10469F7E9C0843611F08936B6
:1014900041F527FF08C0F801608171818281938145
:1014A0000C5F1F4F09C0F80160817181882777FDAB
:1014B0008095982F0E5F1F4F4FE6B42EB22297FFF4
:1014C00009C090958095709561957F4F8F4F9F4F84
:1014D000F0E8BF2AA2012AE030E00FD1782E74187C
:1014E00044C0853731F43FEEB32EB2222AE030E01B
:1014F00025C099EFB92EB2228F36C1F0803720F483
:10150000883509F0AEC00DC0803721F0883709F06A
:10151000A8C002C020E1B22AB4FE0BC084E0B82A01
:1015200008C0B4FE09C0E6E0BE2A06C028E030E0EC
:1015300005C020E130E002C020E132E0B7FE08C083
:10154000F80160817181828193810C5F1F4F07C018
:10155000F8016081718180E090E00E5F1F4FA20171
:10156000CCD0782E7418FFE7BF22B6FE0BC02EEF4A
:10157000B2227E1438F4B4FE07C0B2FC05C08FEE70
:10158000B82202C0A72C01C0AE2C8B2D90E0B4FE77
:101590000DC0FE01E70DF11D2081203319F4E9EEA5
:1015A000BE2209C0A394B2FE06C004C08678907023
:1015B000009709F0A3948B2C9924B3FC13C0B0FEC0
:1015C0000EC0AF1428F4E72CEF0CEA18AF2C07C0BC
:1015D000E72C05C080E290E0B60163D0A394AF147D
:1015E000C8F304C0AF1410F4FA1801C0FF2484FE3D
:1015F0000EC080E390E0B60154D082FE1DC081FE93
:1016000003C088E590E010C088E790E00DC0C401F9
:1016100086789070009781F081FC02C080E201C062
:101620008BE2B7FC8DE290E0B6013BD005C080E3D1
:1016300090E0B60136D0EA947E14C8F37A94F201B1
:10164000E70DF11D808190E0B6012BD07720B1F736
:1016500005C080E290E0B60124D0FA94FF20C9F7DB
:1016600044CEF6012681378102C02FEF3FEFC9013A
:101670002C96E2E1BCC0FC01059061507040011065
:10168000D8F7809590958E0F9F1F0895FC016150AB
:10169000704001900110D8F7809590958E0F9F1F94
:1016A00008950F931F93CF93DF938C01EB018B81F0
:1016B00081FF1BC082FF0DC02E813F818C819D81E7
:1016C0002817390764F4E881F9810193F983E883E5
:1016D00006C0E885F985802F0995009731F48E8141
:1016E0009F8101969F838E8302C00FEF1FEFC80179
:1016F000DF91CF911F910F910895FA01AA27283009
:1017000051F1203181F1E8946F936E7F6E5F7F4FCE
:101710008F4F9F4FAF4FB1E03ED0B4E03CD0670F4A
:10172000781F891F9A1FA11D680F791F8A1F911D9D
:10173000A11D6A0F711D811D911DA11D20D009F4ED
:1017400068943F912AE0269F11243019305D31932F
:10175000DEF6CF010895462F4770405D4193B3E018
:101760000FD0C9F7F6CF462F4F70405D4A3318F0BF
:10177000495D31FD4052419302D0A9F7EACFB4E070
:10178000A6959795879577956795BA95C9F7009728
:101790006105710508959B01AC010A2E06945795C9
:1017A000479537952795BA95C9F7620F731F841F20
:1017B000951FA01D08952F923F924F925F926F92B6
:1017C0007F928F929F92AF92BF92CF92DF92EF92D1
:1017D000FF920F931F93CF93DF93CDB7DEB7CA1B52
:1017E000DB0B0FB6F894DEBF0FBECDBF09942A887D
:1017F000398848885F846E847D848C849B84AA8425
:10180000B984C884DF80EE80FD800C811B81AA81B1
:10181000B981CE0FD11D0FB6F894DEBF0FBECDBF7C
:08182000ED010895F894FFCFDB
:101828000030200203E00510AC05069005172806D5
:1018380000000000000000000000000000000000A0
:101848000000000000000000000000000000000090
:1018580000000000000204040404040625782000A7
:0C1868007EFF06000000000000EF010001
:00000001FF
