:100000000C9434010C9451010C9451010C94510145
:100010000C9451010C9451010C9451010C94510118
:100020000C9451010C9451010C9451010C94510108
:100030000C9451010C9451010C94B3070C94510190
:100040000C9451010C9451010C9450070C94290705
:100050000C9451010C9451010C9451010C945101D8
:100060000C9451010C94510100C1814001C08041A8
:1000700001C0804100C1814001C0804100C1814078
:1000800000C1814001C0804101C0804100C1814068
:1000900000C1814001C0804100C1814001C0804158
:1000A00001C0804100C1814001C0804100C1814048
:1000B00000C1814001C0804100C1814001C0804138
:1000C00001C0804100C1814000C1814001C0804128
:1000D00001C0804100C1814001C0804100C1814018
:1000E00000C1814001C0804101C0804100C1814008
:1000F00000C1814001C0804100C1814001C08041F8
:1001000001C0804100C1814000C1814001C08041E7
:1001100001C0804100C1814001C0804100C18140D7
:1001200000C1814001C0804100C1814001C08041C7
:1001300001C0804100C1814001C0804100C18140B7
:1001400000C1814001C0804101C0804100C18140A7
:1001500000C1814001C0804100C1814001C0804197
:1001600001C0804100C1814000C0C101C30302C27F
:10017000C60607C705C5C404CC0C0DCD0FCFCE0EE7
:100180000ACACB0BC90908C8D81819D91BDBDA1A57
:100190001EDEDF1FDD1D1CDC14D4D515D71716D6C7
:1001A000D21213D311D1D010F03031F133F3F23237
:1001B00036F6F737F53534F43CFCFD3DFF3F3EFEA7
:1001C000FA3A3BFB39F9F83828E8E929EB2B2AEA17
:1001D000EE2E2FEF2DEDEC2CE42425E527E7E62687
:1001E00022E2E323E12120E0A06061A163A3A262F7
:1001F00066A6A767A56564A46CACAD6DAF6F6EAE67
:10020000AA6A6BAB69A9A86878B8B979BB7B7ABAD6
:10021000BE7E7FBF7DBDBC7CB47475B577B7B67646
:1002200072B2B373B17170B05090915193535292B6
:1002300096565797559594549C5C5D9D5F9F9E5E26
:100240005A9A9B5B99595898884849894B8B8A4A96
:100250004E8E8F4F8D4D4C8C448485458747468606
:10026000824243834181804011241FBECFEFD4E0FE
:10027000DEBFCDBF11E0A0E0B1E0E6E0F3E102C0F7
:1002800005900D92A433B107D9F712E0A4E3B1E0D1
:1002900001C01D92A738B107E1F70E947B010C94C1
:1002A00081090C940000DC0123E0683E7207D8F05D
:1002B000CA01860F971F8D5E9340A8F4FB01EE0FD5
:1002C000FF1FEC59F6400AC0908181818C931196F2
:1002D0009C9311971296415050403296411551050A
:1002E00099F780E0089581E0089581E0089581E024
:1002F000089581E00895EF92FF920F931F93CF939B
:10030000DF9380E06AE040E000E016E920E030E0C2
:1003100092E0E92E0E94DF0884E361E040E051E0D2
:1003200023E030E00E94840478940E943108EE2497
:10033000FF248701C1E2D0E00E94540881EAE81658
:1003400086E8F80681E0080780E0180730F4089492
:10035000E11CF11C011D111D0CC080913401909114
:10036000350101969093350180933401EE24FF24EA
:100370008701D0933701C0933601DECFCF93DF934F
:10038000FC01EB01888199810697C0F1A181B281BE
:10039000938180E02481422F50E0482B592B3581F6
:1003A000CA0187709070BA0123E0769567952A9507
:1003B000E1F7892B19F0262F2F5F01C0262FCA01E4
:1003C0000197805B9740D0F42317C1F47A2F60E047
:1003D0008B2F90E0682B792B6F5F7F4FCF010696B4
:1003E00021E00E947701882319F00E94150507C0BB
:1003F00085E090E09983888380E001C083E0DF910D
:10040000CF910895DF93CF9300D0CDB7DEB7DC0155
:10041000FB0180819181059761F511962C911197CF
:1004200012963C91129714968C911497882309F593
:1004300013969C91892F81508E3FD8F01A829F3F4E
:1004400019F481E0898301C01982722F60E0832F43
:1004500090E0682B792B6F5F7F4FCE01019641E0D2
:1004600050E021E00E947701882321F00E941505C9
:1004700001C083E00F900F90CF91DF9108950F930B
:100480001F93CF93DF93FC01EB018881998105973E
:1004900009F047C00181DF0112963281938180E02B
:1004A0002481422F50E0482B592BCA0101978F5CC1
:1004B0009740B8F51982188281E0808388819981FC
:1004C000019699838883CA0187709070BA0113E0FE
:1004D000769567951A95E1F7892B19F0162F1F5F0E
:1004E00001C0162F11838881998101969983888391
:1004F000702F60E0832F90E0682B792B6F5F7F4F28
:10050000CD0120E00E947701882319F00E94150593
:1005100009C088819981810F911D9983888380E02A
:1005200001C083E0DF91CF911F910F9108950F9348
:100530001F93CF93DF93FC01EB018881998105978D
:1005400009F046C00181DF0112963281938180E07B
:100550002481422F50E0482B592BCA0101978F5C10
:100560009740B0F51982188282E080838881998152
:10057000019699838883CA0187709070BA0123E03D
:10058000769567952A95E1F7892B19F0162F1F5F4D
:1005900001C0162F118388819981019699838883E0
:1005A000702F60E0832F90E0682B792B6F5F7F4F77
:1005B000CD010E947901882319F00E94150509C018
:1005C00088819981810F911D9983888380E001C082
:1005D00083E0DF91CF911F910F9108958F929F92A9
:1005E000AF92BF92CF92DF92EF92FF920F931F9341
:1005F000CF93DF93EC018B01FB01808191810A97FE
:1006000008F467C0898022E0A22EB12CAC0EBD1E7A
:100610009A809B8180E02C81E22EFF24E82AF92A2F
:10062000ED81FE816F8128857985C70101978D371E
:10063000910508F053C0962F80E0422F50E0482BE0
:10064000592B4115510509F449C04A37510508F0A5
:1006500045C09A01220F331F872F90E028173907D2
:10066000E9F57E2F60E08F2F90E0682B792B6F5F8C
:100670007F4FCE010A9621E00E947501882359F52B
:10068000F8011182108287E188838081918101962F
:10069000918380836701CC0CDD1CC98280819181AC
:1006A000019691838083782D60E0892D90E0682BFE
:1006B000792B6F5F7F4FC501A70120E00E94750174
:1006C000882349F4F801808191818C0D9D1D9183CF
:1006D000808380E004C00E94150501C083E0DF91A3
:1006E000CF911F910F91FF90EF90DF90CF90BF902F
:1006F000AF909F908F9008950F931F93CF93DF93A8
:10070000FC01EB01888199810597C1F5B1819F01B9
:100710002E5F3F4FA2818481482F50E0CA0101978C
:100720008D37910558F51982188283E0808388817E
:1007300099810196998388838A01000F111F018393
:10074000888199810196998388837B2F60E08A2F25
:1007500090E0682B792B6F5F7F4FC90120E00E94EA
:100760007501882319F00E94150509C088819981B7
:10077000800F911F9983888380E001C083E0DF911F
:10078000CF911F910F910895CF93DF93FC01EB015F
:1007900088819981069760F13181A281938180E0FF
:1007A0002481422F50E0482B592B2581CA01019703
:1007B00088379105E8F4CA01880F991F2817C1F4FA
:1007C000732F60E08A2F90E0682B792B6F5F7F4F4B
:1007D000CF01069621E00E947501882319F00E943E
:1007E000150507C085E090E09983888380E001C00B
:1007F00083E0DF91CF910895DC01FB01808191813D
:10080000059711F083E0089511967C91119760E0AF
:1008100012968C91129790E0682B792B6F5F7F4F27
:10082000CD01039641E050E021E00E94750188234C
:1008300011F00E9415050895FF920F931F93CF9317
:10084000DF93FC01EB01888199810597D1F5F18057
:10085000DF0112963281938180E02481422F50E0A3
:10086000482B592BCA0101978C37910550F51982F5
:10087000188284E080838881998101969983888396
:100880008A01000F111F0183888199810196998344
:1008900088837F2D60E0832F90E0682B792B6F5F3A
:1008A0007F4FCD010E945301882319F00E94150546
:1008B00009C088819981800F911F9983888380E086
:1008C00001C083E0DF91CF911F910F91FF900895B8
:1008D0000F931F938B019C012F5F3F4FECE3F1E0DF
:1008E00040915C0150915D01C901BF010E947809EE
:1008F00080915C0190915D010196F8019183808364
:1009000080E01F910F910895CF93DF93E82FE901C5
:10091000C9010296809710F084E023C0E0933C0167
:10092000662311F480E001C08FEF80933D0182E0E7
:1009300090E090935D0180935C01209789F02EE315
:1009400031E0C901BA01AE010E94780980915C01D1
:1009500090915D018C0F9D1F90935D0180935C01D0
:1009600080E0DF91CF9108950F931F93CF93DF9392
:1009700030E0DB0153E0B695A7955A95E1F7677033
:100980007070E1E0F0E002C0EE0FFF1F4A95E2F761
:1009900031978C010A0F1B1FE801488150E0119626
:1009A000A80FB91F9C9180E0482B592B062E02C03E
:1009B000EE0FFF1F0A94E2F7E095F0954E235F23B8
:1009C00002C0220F331F6A95E2F7422B532B488354
:1009D0005C93DF91CF911F910F910895FB01B3E0DC
:1009E000F695E795BA95E1F7DC01AE0FBF1F2C91A4
:1009F00030E011969C9180E0822B932BA3E0EE0FC8
:100A0000FF1FAA95E1F76E1B7F0B02C09695879595
:100A10006A95E2F721E030E002C0220F331F4A95C9
:100A2000E2F72150304082230895813029F081304F
:100A300028F0873039F404C082E0089580E00895FA
:100A400086E0089584E00895DC013FEF2FEF11C0A8
:100A50008D91422F482750E0CA0188599F4FFC01D1
:100A60002491232748595E4FFA01849161507040C8
:100A7000382F6115710561F7932F80E030E0282B46
:100A8000392BC90108951F9380915F01882321F0BC
:100A9000823021F010E006C080E001C081E00E94B9
:100AA000B106182F0E94890781E080935F01812F92
:100AB0001F910895F89480E060E00E94C4060E94AF
:100AC0008907789408951F9380915E01882319F017
:100AD000813029F406C081E060E00E94C40610E085
:100AE0002AC08091620190916301892BD1F0E0913D
:100AF0006001F091610180810E941F078091600177
:100B000090916101019690936101809360018091C1
:100B10006201909163010197909363018093620158
:100B2000DECF83E00E94B106182F81E060E00E94D2
:100B3000C40610925E01812F1F910895DF93CF9319
:100B40000F92CDB7DEB7CE0101960E9423078091A8
:100B50005F01813039F0813098F18230B9F0833013
:100B600089F52EC010926501109264018091640194
:100B7000909165012981FC01E358FE4F2083019685
:100B8000909365018093640182E018C080916401B4
:100B9000909165018F3F910509F078F4809164018F
:100BA000909165012981FC01E358FE4F2083019655
:100BB000909365018093640103C083E080935F019B
:100BC0000E94770780E00F90CF91DF910895F8940D
:100BD00010925F0181E060E00E94C4060E947707E6
:100BE000789408951F93282FF89410915F01113085
:100BF00011F085E041C0FB013197F0936101E09372
:100C0000600181E090E09093630180936201208312
:100C10008091620190916301840F951F909363010D
:100C2000809362016091620170916301CF010E9423
:100C300024052091620130916301F901E358FE4FD0
:100C400080832F5F3F4F3093630120936201209197
:100C5000620130916301F901E358FE4F90832F5FE9
:100C60003F4F309363012093620110935E0180E057
:100C700061E00E94C40680E078941F910895EF928D
:100C8000FF920F931F93CF93DF93EC017B018A01B7
:100C9000F89480916401909165010497E0F060916F
:100CA0006401709165018DE791E00E942405892B14
:100CB00091F480917D018883809164019091650118
:100CC0000397F801918380838EE791E0F701918388
:100CD000808380E001C085E07894DF91CF911F91FF
:100CE0000F91FF90EF900895CF92DF92EF92FF92D5
:100CF0000F93862F69017A01F894BA01A90128E0BF
:100D00000E94E006813009F581E0C8168BE4D80620
:100D100080E0E80680E0F80628F083E290E0A0E0BA
:100D2000B0E00DC0CC0CDD1CEE1CFF1C60EA7FE7C0
:100D300087E190E0A70196010E945609C9010E942F
:100D40009307813011F480E001C083E078940F9123
:100D5000FF90EF90DF90CF9008951092670181E0AF
:100D6000089591E0909367018093660181E0089572
:100D7000FC0180916701882331F0809166018083B6
:100D80001092670181E008959091C100986090935E
:100D9000C100882321F08091C100806903C0809147
:100DA000C1008F768093C100662321F08091C1003D
:100DB000886203C08091C1008F7D8093C100089537
:100DC000CF92DF92EF92FF920F931F936A017B0104
:100DD000122F84E0CC0CDD1CEE1CFF1C8A95D1F791
:100DE00060E074E284EF90E0A70196010E9456094A
:100DF000215030403093C5002093C400013031F0C1
:100E0000023011F490E203C090E001C090E317308B
:100E100021F0183019F4966001C094608091C200EE
:100E2000982B9093C20080E060E00E94C40681E0AD
:100E30001F910F91FF90EF90DF90CF9008958093D6
:100E4000C60081E00895FC018091C600808381E0A6
:100E500008951F920F920FB60F9211242F933F9374
:100E60004F935F936F937F938F939F93AF93BF93B2
:100E7000EF93FF93E0917D02F0917E020995FF913F
:100E8000EF91BF91AF919F918F917F916F915F9102
:100E90004F913F912F910F900FBE0F901F9018957B
:100EA0001F920F920FB60F9211242F933F934F93DF
:100EB0005F936F937F938F939F93AF93BF93EF93C2
:100EC000FF93E0918102F09182020995FF91EF91E9
:100ED000BF91AF919F918F917F916F915F914F9152
:100EE0003F912F910F900FBE0F901F90189516BC39
:100EF00020916801309169012115310531F080910F
:100F00006E00826080936E0027BD85B5856085BDCB
:100F1000089585B58A7F85BDEEE6F0E080818D7FFE
:100F20008083A99A0895A0E0B0E0BC01CD0129E03A
:100F30003DE340E050E00E94370920E23EE440E01B
:100F400050E00E94560930936901209368012F3FB9
:100F5000310519F010F080E0089514BC15BC0E9412
:100F6000890781E008951F920F920FB60F92112406
:100F70002F933F934F935F936F937F938F939F93A1
:100F8000AF93BF93EF93FF93E0917F02F0918002C4
:100F90000995FF91EF91BF91AF919F918F917F91B3
:100FA0006F915F914F913F912F910F900FBE0F90D6
:100FB0001F901895482F181614F082E00895F894A1
:100FC00061157105F9F0E5E0F1E080E090E0208145
:100FD00031812115310519F02617370769F4FC0115
:100FE000EE0FFF1FE80FF91FEC5FFE4F4083728387
:100FF0006183409711F51FC00196339680319105AA
:1010000031F719C0E4E0F1E020E030E0808184179E
:1010100059F4F901EE0FFF1FE20FF31FEC5FFE4FD3
:1010200010821282118209C02F5F3F4F3396203108
:10103000310561F702C084E001C080E07894089532
:1010400080910301813011F086E00895E0917B01E9
:10105000F0917C01309711F480E00895099580E0CB
:10106000089580910301813011F086E00895E091A8
:101070007501F091760109951092030180E00895C1
:1010800080910301882351F4E0917701F091780178
:10109000099581E08093030180E00895813011F08B
:1010A00086E0089580E00895DF93CF930F92CDB747
:1010B000DEB780910301882311F086E07CC0CE0169
:1010C00001960E94B806813009F074C09981913070
:1010D00021F0923009F06EC01BC0E0917901F091CF
:1010E0007A018EE691E06FE671E04BE651E00995FA
:1010F000882309F05FC090916E018091710198176B
:1011000019F0992309F056C082E00E94B10652C03E
:10111000A0916F01B09170013C9130936D0180936B
:101120006A01E4E0F1E080E090E020812223C1F058
:10113000231789F4FC01EE0FFF1FE80FF91FEC5F86
:10114000FE4F0180F281E02DCD016BE671E0099543
:1011500080936A0105C0019633968031910529F785
:1011600080916E01882331F190916A01992399F061
:10117000E0916F01F091700180916D018068808332
:10118000E0916F01F0917001918382E090E0909383
:101190006C0180936B0160916F01709170014091BF
:1011A0006B0150916C01E0917301F0917401809199
:1011B0007101099580E00F90CF91DF910895EF9232
:1011C0000F931F93982F862F8150873F08F049C0B7
:1011D00060937101992309F044C087EE95E09093E4
:1011E0007601809375018AE595E09093780180936C
:1011F000770182EF95E090937401809373018FE300
:1012000096E090937A018093790110927C0110927C
:101210007B018EE995E0909382028093810283E6C0
:1012200095E090937E0280937D0283E495E0909315
:10123000800280937F02862F642FA90198010E2DD2
:101240000E947406182F882369F40E94AD06882333
:1012500011F413E007C01092720181E08093030142
:1012600001C012E0812F1F910F91EF900895629FAE
:10127000D001739FF001829FE00DF11D649FE00D8E
:10128000F11D929FF00D839FF00D749FF00D659FEF
:10129000F00D9927729FB00DE11DF91F639FB00DEE
:1012A000E11DF91FBD01CF0111240895A1E21A2EFD
:1012B000AA1BBB1BFD010DC0AA1FBB1FEE1FFF1FFA
:1012C000A217B307E407F50720F0A21BB30BE40B4A
:1012D000F50B661F771F881F991F1A9469F7609591
:1012E0007095809590959B01AC01BD01CF0108954B
:1012F000FB01DC0102C001900D9241505040D8F733
:061300000895F894FFCFF0
:10130600AABBCC02116804041C04037C0310C403AA
:1013160006FC0317EE02013F020502020FBE0102A0
:10132600970200000000000000000000000000001E
:0413360000000000B3
:00000001FF
