:100000000C9446010C9463010C9463010C946301FD
:100010000C9463010C9463010C9463010C946301D0
:100020000C9463010C9463010C9463010C946301C0
:100030000C945A040C9463010C9463010C946301B6
:100040000C9463010C9463010C94CC030C94A503F1
:100050000C9463010C9463010C9463010C94630190
:100060000C9463010C9463010C9463010C94630180
:100070000C9463010C9463010C9463010C94630170
:100080000C9463010C9463010C94630100C0C101E2
:10009000C30302C2C60607C705C5C404CC0C0DCDF8
:1000A0000FCFCE0E0ACACB0BC90908C8D81819D968
:1000B0001BDBDA1A1EDEDF1FDD1D1CDC14D4D51598
:1000C000D71716D6D21213D311D1D010F03031F188
:1000D00033F3F23236F6F737F53534F43CFCFD3DB8
:1000E000FF3F3EFEFA3A3BFB39F9F83828E8E929A8
:1000F000EB2B2AEAEE2E2FEF2DEDEC2CE42425E558
:1001000027E7E62622E2E323E12120E0A06061A1C7
:1001100063A3A26266A6A767A56564A46CACAD6D77
:10012000AF6F6EAEAA6A6BAB69A9A86878B8B979E7
:10013000BB7B7ABABE7E7FBF7DBDBC7CB47475B517
:1001400077B7B67672B2B373B17170B05090915107
:100150009353529296565797559594549C5C5D9D37
:100160005F9F9E5E5A9A9B5B995958988848498927
:100170004B8B8A4A4E8E8F4F8D4D4C8C44848545D7
:1001800087474686824243834181804000C1814047
:1001900001C0804101C0804100C1814001C0804157
:1001A00000C1814000C1814001C0804101C0804147
:1001B00000C1814000C1814001C0804100C1814037
:1001C00001C0804101C0804100C1814001C0804127
:1001D00000C1814000C1814001C0804100C1814017
:1001E00001C0804101C0804100C1814000C1814007
:1001F00001C0804101C0804100C1814001C08041F7
:1002000000C1814000C1814001C0804101C08041E6
:1002100000C1814000C1814001C0804100C18140D6
:1002200001C0804101C0804100C1814000C18140C6
:1002300001C0804101C0804100C1814001C08041B6
:1002400000C1814000C1814001C0804100C18140A6
:1002500001C0804101C0804100C1814001C0804196
:1002600000C1814000C1814001C0804101C0804186
:1002700000C1814000C1814001C0804100C1814076
:1002800001C0804101C0804100C1814011241FBED6
:10029000CFEFD0E1DEBFCDBF11E0A0E0B1E0EEE5F1
:1002A000F5E100E00BBF02C007900D92A233B10749
:1002B000D9F712E0A2E3B1E001C01D92AC38B1075A
:1002C000E1F70C9465010C940000CFEFD0E1DEBFA4
:1002D000CDBF8FEF87BB84BBEE24FF2400E815E27F
:1002E00020E030E040E06AE0C7010E94A6040E94DE
:1002F0005F050E94980541E060E070E086E391E0D0
:100300000E94260A813011F4C09A01C0C09841E0D1
:1003100061E070E086E391E00E94260A813011F4EA
:10032000C19A01C0C19841E062E070E086E391E0CB
:100330000E94260A813011F4C29A01C0C29841E09D
:1003400063E070E086E391E00E94260A813011F4B8
:10035000C39A01C0C39841E064E070E086E391E095
:100360000E94260A813011F4C49A01C0C49841E069
:1003700065E070E086E391E00E94260A813011F486
:10038000C59A01C0C59841E066E070E086E391E05F
:100390000E94260A813011F4C69A01C0C69841E035
:1003A00067E070E086E391E00E94260A813011F454
:1003B000C79A01C0C79841E068E070E086E391E029
:1003C0000E94260A813011F4A89A01C0A89841E041
:1003D00069E070E086E391E00E94260A813011F422
:1003E000A99A01C0A99841E06AE070E086E391E033
:1003F0000E94260A813011F4AA9A01C0AA9841E00D
:100400006BE070E086E391E00E94260A813011F4EF
:10041000AB9A01C0AB9841E06CE070E086E391E0FC
:100420000E94260A813011F4AC9A01C0AC9841E0D8
:100430006DE070E086E391E00E94260A813011F4BD
:10044000AD9A01C0AD9841E06EE070E086E391E0C6
:100450000E94260A813011F4AE9A01C0AE9841E0A4
:100460006FE070E086E391E00E94260A813011F48B
:10047000AF9A3FCFAF983DCFCF92DF92EF92FF92EE
:100480000F931F93CF93DF937C01CC24DD24EA01EB
:1004900043E0683E7407D0F1CB018C0F9D1F89505B
:1004A0009440A0F58B01085E13402115310521F021
:1004B00021303105B1F02DC01C161D0654F5AE01DA
:1004C000C131D10514F040E150E0B80186E391E07C
:1004D0000E94260AF70181937F016097005F1F4FFA
:1004E000EBCF1C161D06ACF4F70121917F01AE0184
:1004F000C131D10514F040E150E0B80186E391E04C
:100500000E94F1096097005F1F4FEBCF81E0C82E7A
:10051000D12CC601DF91CF911F910F91FF90EF90E9
:10052000DF90CF90089581E090E0089581E090E021
:100530000895AF92BF92CF92DF92EF92FF920F9306
:100540001F93CF93DF935C01EB017A01CC24DD2470
:100550008A01C89903C021E0422F02C020E041E097
:10056000B60182E391E00E94F109C99903C021E03C
:10057000422F02C020E041E061E070E082E391E0C0
:100580000E94F109CA9903C021E0422F02C020E075
:1005900041E062E070E082E391E00E94F109CB99D2
:1005A00003C021E0422F02C020E041E063E070E0A0
:1005B00082E391E00E94F109CC9903C021E0422F2F
:1005C00002C020E041E064E070E082E391E00E943C
:1005D000F109CD9903C021E0422F02C020E041E0A3
:1005E00065E070E082E391E00E94F109CE9903C0DA
:1005F00021E0422F02C020E041E066E070E082E3AB
:1006000091E00E94F109CF9903C021E0422F02C07E
:1006100020E041E067E070E082E391E00E94F109B0
:1006200023E0C83ED20700F1CE018E0D9F1D8950F8
:100630009440D0F4C85ED3401E141F04C4F4A80133
:100640000930110514F048E050E0BE0182E391E06A
:100650000E94260AF50181935F01085010402896F8
:100660001016110664F303C091E0C92ED12CC60107
:10067000DF91CF911F910F91FF90EF90DF90CF907E
:10068000BF90AF900895539A882319F08AB180697A
:1006900002C08AB18F768AB9662321F08AB1886256
:1006A0008AB9089555980895BF92CF92DF92EF923C
:1006B000FF920F931F93CF936A017B01B22EC0E08C
:1006C00084E0CC0CDD1CEE1CFF1C8A95D1F760E0A9
:1006D00074E284EF90E0A70196010E948D0ADA018E
:1006E000C901815089B90130110529F00230110585
:1006F00019F4C0E201C0C0E32B2D332727303105A8
:1007000029F02830310519F4C66001C0C460809119
:1007100095008C2B8093950060E0862F0E94430308
:1007200081E090E0CF911F910F91FF90EF90DF90CB
:10073000CF90BF9008958CB981E090E00895FC01BE
:100740008CB1808381E090E008951F920F920FB6E4
:100750000F9211242F933F934F935F936F937F9347
:100760008F939F93AF93BF93EF93FF93E091820199
:10077000F09183010995FF91EF91BF91AF919F9106
:100780008F917F916F915F914F913F912F910F903A
:100790000FBE0F901F9018951F920F920FB60F92D9
:1007A00011242F933F934F935F936F937F938F9376
:1007B0009F93AF93BF93EF93FF93E0918601F091E6
:1007C00087010995FF91EF91BF91AF919F918F9113
:1007D0007F916F915F914F913F912F910F900FBE3D
:1007E0000F901F90189510923C0181E090E00895C1
:1007F00021E020933C0190933B0180933A0181E0FA
:1008000090E00895FC0120E080913C01882349F0AC
:1008100080913A0190913B019183808320933C0128
:1008200021E0822F992787FD909508958EB58A7FC4
:100830008EBD87B78F7E87BF86B7806186BF0895DC
:10084000AA27BB27BC01CD0129E03DE340E050E0F1
:100850000E946E0ADC01CB01BC01CD0120E23EE426
:1008600040E050E00E948D0A30933E0120933D010C
:100870001FBC1EBC10927A008EB58A7F8EBD87B7D2
:100880008F7E87BF86B7806186BF81E090E0089544
:100890001DBC1CBC20913D0130913E01211531054C
:1008A00029F087B7806187BF3BBD2ABD8EB58560C3
:1008B0008EBD08951F920F920FB60F9211242F93A1
:1008C0003F934F935F936F937F938F939F93AF93D8
:1008D000BF93EF93FF93E0918401F0918501099517
:1008E000FF91EF91BF91AF919F918F917F916F9108
:1008F0005F914F913F912F910F900FBE0F901F90DE
:100900001895DC014FEF242F615070408FEF6F3F3F
:10091000780799F08D914827842F9927FC01E45797
:10092000FE4F4491422784579F4FFC012491615010
:100930007040FFEF6F3F7F0769F7822F9927382FAD
:100940002227842F9927822B932B0895EF92FF92D1
:100950000F931F93CF93DF93FC01762F642FA90190
:100960009801C0E0D0E0872F8150873F20F470933A
:100970004901EF2B19F0C2E0D0E046C08DE796E0C8
:1009800090934F0180934E018AE896E09093510135
:100990008093500180ED96E090934D0180934C013F
:1009A00083E996E09093530180935201D0935501CF
:1009B000C09354018DE297E0909387018093860164
:1009C0008AE897E0909383018093820181ED97E01C
:1009D00090938501809384018701872F0E943B06B5
:1009E000EC01892B89F40E94F303882319F4C3E0F6
:1009F000D0E00AC0D0934B01C0934A0181E090E05F
:100A00009093310180933001CE01DF91CF911F91FE
:100A10000F91FF90EF900895482F1816ACF5F894B9
:100A20006115710501F120E030E0E0E0F1E0818145
:100A30009281009719F08617970721F440837283FB
:100A4000618306C02F5F3F4F3396203131057CF321
:100A500020313105A9F484E090E014C01C92FD011E
:100A6000128211820DC0E0E0F1E0DF018081339657
:100A70008417A1F3139681E0ED32F807B9F3B4F3CC
:100A800080E090E07894089582E090E00895CF931C
:100A9000DF93C0E0D0E08091300190913101019767
:100AA00041F4E0915401F0915501309721F00995FE
:100AB00002C0C6E0D0E0CE01DF91CF910895CF9380
:100AC000DF93C0E0D0E08091300190913101019737
:100AD00051F4E0914E01F0914F010995D09331010D
:100AE000C093300102C0C6E0D0E0CE01DF91CF91CB
:100AF0000895CF93DF93C0913001D09131012097B9
:100B000069F4E0915001F0915101099581E090E084
:100B10009093310180933001CE0107C0219719F4E1
:100B200080E090E002C086E090E0DF91CF910895F0
:100B3000CF93DF93CDB7DEB722970FB6F894DEBF21
:100B40000FBECDBF8091300190913101892B19F0FA
:100B500086E090E087C0CE0101960E9402048130B9
:100B600009F07EC089819A818130910519F0029740
:100B700069F176C0E0915201F091530145E451E0F2
:100B800061E471E083E491E00995892B09F068C084
:100B90009091430180914901981719F0992309F028
:100BA0005FC082E090E00E94F8035AC0FD012181FD
:100BB000328165E471E08091410190914201F90137
:100BC000099590934801809347011CC0E091410131
:100BD000F091420120812093440181E090E09093C4
:100BE000480180934701E0E0F1E0DF018081339626
:100BF000882341F08217D1F2139681E0ED32F80795
:100C0000A9F3A4F380914301882351F18091470116
:100C100090914801892BA9F0E0914101F0914201A6
:100C20008091440180688083E0914101F09142010C
:100C300080914701818382E090E090934601809308
:100C40004501E0914C01F0914D01409145015091D9
:100C500046016091410170914201809149010995DD
:100C600080E090E022960FB6F894DEBF0FBECDBFB5
:100C7000DF91CF910895CF92DF92EF92FF920F9381
:100C80001F93CF93DF93E62F69017A01C0E0D0E094
:100C9000F89428E0B701A6018E2F0E9454038130FA
:100CA000F9F481E0C8168BE4D80680E0E80680E01D
:100CB000F80628F023E230E040E050E00CC0CC0C15
:100CC000DD1CEE1CFF1C60EA7FE787E190E0A701D6
:100CD00096010E948D0AC9010E942004813011F002
:100CE000C3E0D0E07894CE01DF91CF911F910F91B6
:100CF000FF90EF90DF90CF900895F89410925901F3
:100D00001092580160E081E00E9443030E94480471
:100D100078940895F89460E0862F0E9443030E941F
:100D2000160478940895CF92DF92EF92FF920F937A
:100D30001F93CF93DF93EC017B018A01CC24DD2448
:100D4000F89480915E0190915F010497D8F06091D2
:100D50005E0170915F018CE891E00E948104892B13
:100D600089F480918C01888380915E0190915F016C
:100D70000397F801918380838DE891E0F7019183D7
:100D8000808303C085E0C82ED12C7894C601DF9102
:100D9000CF911F910F91FF90EF90DF90CF9008952A
:100DA0000F931F93CF93DF9300E010E0F894C0916E
:100DB0005801D0915901C130D10509F045C0FB015E
:100DC0003197F0935B01E0935A01D0935D01C0939A
:100DD0005C01808380915C0190915D01840F951F7F
:100DE00090935D0180935C0160915C0170915D0165
:100DF00080915A0190915B010E9481049C01809135
:100E00005C0190915D01FC01E457FE4F2083019647
:100E100090935D0180935C0180915C0190915D01F4
:100E2000FC01E457FE4F232F332720830196909334
:100E30005D0180935C01D0935701C093560161E03E
:100E400080E00E94430302C005E010E07894C801EE
:100E5000DF91CF911F910F910895CF93DF93CDB77D
:100E6000DEB721970FB6F894DEBF0FBECDBFCE011F
:100E700001960E949F038091580190915901813001
:100E8000910549F081309105C0F182309105C1F0A2
:100E9000039799F134C010925F0110925E01809126
:100EA0005E0190915F01FC01E457FE4F2981208390
:100EB000019690935F0180935E0182E090E019C0FB
:100EC00080915E0190915F018F3F910509F078F468
:100ED00080915E0190915F01FC01E457FE4F2981F2
:100EE0002083019690935F0180935E0106C083E0AA
:100EF00090E090935901809358010E94480480E04B
:100F000090E021960FB6F894DEBF0FBECDBFDF9103
:100F1000CF9108951F93CF93DF9310E080915601F6
:100F200090915701009719F0019731F032C0612F6D
:100F300081E00E9443032DC0C0915C01D0915D010E
:100F40002097D1F0E0915A01F0915B0180810E94DD
:100F50009B0380915A0190915B01019690935B01F4
:100F600080935A0180915C0190915D01019790936B
:100F70005D0180935C010DC083E090E00E94F80366
:100F8000182F60E081E00E944303D0935701C09383
:100F90005601812F992787FD9095DF91CF911F9161
:100FA0000895CF93C0E0809158019091590182300B
:100FB000910531F08330910540F4009731F402C07F
:100FC00081E090E00E94F803C82F0E94160481E09F
:100FD00090E090935901809358018C2F992787FDB9
:100FE0009095CF910895EF92FF921F93CF93DF9347
:100FF000FC01EB01EE24FF2488819981059709F01B
:1010000047C081819927782F662782819927682B8D
:10101000792B6F5F7F4F83819927582F44278481D5
:101020009927482B592BCA0101978F5C974080F56F
:10103000F982E88281E08193888199810196998380
:101040008883CA01877090709A01A3E0369527952E
:10105000AA95E1F7892B19F0122F1F5F01C0122FFB
:1010600011938881998101969983888320E030E0EB
:10107000CF010E943C02009721F00E944C0A7C01A3
:101080000AC088819981810F911D9983888303C04B
:1010900083E0E82EF12CC701DF91CF911F91FF90E3
:1010A000EF9008950F931F93CF93DF93CDB7DEB7E3
:1010B00022970FB6F894DEBF0FBECDBFDC01FB0157
:1010C00000E010E080819181059741F5FD0181816B
:1010D0009927782F662782819927682B792B6F5F54
:1010E0007F4F94819923D1F483818F3F11F088231E
:1010F000A9F49A838F3F19F481E0898301C0998311
:1011000021E030E0A901CE01820F931F0E943C0232
:10111000009731F00E944C0A8C0102C003E010E0FD
:10112000C80122960FB6F894DEBF0FBECDBFDF9187
:10113000CF911F910F9108950F931F93CF93DF933A
:10114000FC018B01C0E0D0E0DB018D919C91069702
:10115000C0F181819927782F662782819927682B92
:10116000792B6F5F7F4F83819927582F4427848184
:101170009927482B592BA581CA01877090709A0135
:10118000B3E036952795BA95E1F7892B09F02F5FE3
:10119000CA010197805B9740A0F42A1791F421E0DF
:1011A00030E0CF0106960E943C02009721F00E9499
:1011B0004C0AEC0108C085E090E0F801918380833F
:1011C00002C0C3E0D0E0CE01DF91CF911F910F911B
:1011D0000895EF92FF920F931F93CF93DF93DC015B
:1011E000EB01EE24FF24888199810597E9F5FD0143
:1011F00081819927782F662782819927682B792BFF
:101200006F5F7F4F83819927582F442784819927C7
:10121000482B592BCA0101978C37910528F5F98283
:10122000E88284E081939F01888199810196998366
:1012300088838A01040F151FFD010183888199812C
:10124000019699838883C90101960E9493020097B1
:1012500021F00E944C0A7C010AC088819981800F8C
:10126000911F9983888303C083E0E82EF12CC70186
:10127000DF91CF911F910F91FF90EF9008950F9301
:101280001F93CF93DF93F82FE62FBA01E90100E017
:1012900010E0C9010296809728F5F093600182E082
:1012A00090E09093810180938001EE2311F08FEF05
:1012B00001C08E2F809361012097B1F08091800151
:1012C00090918101AE01805A9E4F0E94610A8091E7
:1012D0008001909181018C0F9D1F909381018093DB
:1012E000800102C004E010E0C801DF91CF911F919E
:1012F0000F9108950F931F938B01209180013091DE
:101300008101A90160E671E001960E94610A809165
:101310008001909181010196F8019183808380E0A2
:1013200090E01F910F910895EF92FF921F93CF933A
:10133000DF93FC01EB01EE24FF248881998105975E
:1013400009F045C081819927782F662782819927E6
:10135000682B792B6F5F7F4F83819927582F442704
:1013600084819927482B592BCA0101978F5C97409C
:1013700070F5F982E88282E08193888199810196F3
:1013800099838883CA01877090709A01A3E036958B
:101390002795AA95E1F7892B19F0122F1F5F01C03D
:1013A000122F119388819981019699838883CF01A7
:1013B0000E949902009721F00E944C0A7C010AC009
:1013C00088819981810F911D9983888303C083E06F
:1013D000E82EF12CC701DF91CF911F91FF90EF9084
:1013E0000895FB01A42F622F7727AF01477050703B
:1013F000042E02C0660F771F0A94E2F721E030E066
:1014000002C0220F331FAA95E2F72150304002C0DC
:10141000220F331F4A95E2F7B3E0F695E795BA95A8
:10142000E1F7E80FF91F8081992741815527542F53
:101430004427842B952B2095309582239323862B4C
:10144000972B8083892F9927818308959B01642F8F
:10145000D901A770B07041E050E002C0440F551FA1
:101460006A95E2F741505040F90163E0F695E7953F
:101470006A95E1F7E80FF91F8081992721813327C9
:10148000322F2227822B932B02C096958795AA95FF
:10149000E2F78423992708958130910549F081303E
:1014A000910518F0079739F009C080E090E00895A1
:1014B00082E090E0089586E090E0089584E090E076
:1014C0000895FB01DC0140FF05C002C001900D92B0
:1014D00001900D9242505040C8F70895629FD0018C
:1014E000739FF001829FE00DF11D649FE00DF11DDF
:1014F000929FF00D839FF00D749FF00D659FF00D8E
:101500009927729FB00DE11DF91F639FB00DE11D7A
:10151000F91FBD01CF0111240895A1E21A2EAA1BC3
:10152000BB1BFD010DC0AA1FBB1FEE1FFF1FA21793
:10153000B307E407F50720F0A21BB30BE40BF50B90
:10154000661F771F881F991F1A9469F76095709519
:0E155000809590959B01AC01BD01CF010895DF
:10155E00117A0904E90801F3070552080F9C0802E5
:10156E0094090000000000000000000000000000D0
:10157E00000000000000000000000000000000005D
:02158E00020059
:00000001FF
