:100000000C942A010C9445010C9445010C94450173
:100010000C9445010C9445010C94A1040C944501E9
:100020000C9445010C9445010C9445010C94140466
:100030000C94ED030C9445010C9445010C9445017E
:100040000C9445010C9445010C9445010C94450118
:100050000C94450100C0C101C30302C2C60607C714
:1000600005C5C404CC0C0DCD0FCFCE0E0ACACB0BE8
:10007000C90908C8D81819D91BDBDA1A1EDEDF1F18
:10008000DD1D1CDC14D4D515D71716D6D21213D308
:1000900011D1D010F03031F133F3F23236F6F737B8
:1000A000F53534F43CFCFD3DFF3F3EFEFA3A3BFBA8
:1000B00039F9F83828E8E929EB2B2AEAEE2E2FEF58
:1000C0002DEDEC2CE42425E527E7E62622E2E323C8
:1000D000E12120E0A06061A163A3A26266A6A767F8
:1000E000A56564A46CACAD6DAF6F6EAEAA6A6BAB68
:1000F00069A9A86878B8B979BB7B7ABABE7E7FBF98
:100100007DBDBC7CB47475B577B7B67672B2B37387
:10011000B17170B050909151935352929656579737
:10012000559594549C5C5D9D5F9F9E5E5A9A9B5B27
:1001300099595898884849894B8B8A4A4E8E8F4FD7
:100140008D4D4C8C44848545874746868242438347
:100150004181804000C1814001C0804101C0804197
:1001600000C1814001C0804100C1814000C1814087
:1001700001C0804101C0804100C1814000C1814077
:1001800001C0804100C1814001C0804101C0804167
:1001900000C1814001C0804100C1814000C1814057
:1001A00001C0804100C1814001C0804101C0804147
:1001B00000C1814000C1814001C0804101C0804137
:1001C00000C1814001C0804100C1814000C1814027
:1001D00001C0804101C0804100C1814000C1814017
:1001E00001C0804100C1814001C0804101C0804107
:1001F00000C1814000C1814001C0804101C08041F7
:1002000000C1814001C0804100C1814000C18140E6
:1002100001C0804100C1814001C0804101C08041D6
:1002200000C1814001C0804100C1814000C18140C6
:1002300001C0804101C0804100C1814000C18140B6
:1002400001C0804100C1814001C0804101C08041A6
:1002500000C1814011241FBECFE5D4E0DEBFCDBF79
:1002600010E0A0E6B0E0ECEEF5E102C005900D92E2
:10027000A239B107D9F711E0A2E9B0E001C01D929F
:10028000A83EB107E1F70C9447010C940000CFE5BC
:10029000D4E0DEBFCDBF8FEF87BB1BBA1ABAEE2406
:1002A000FF2400E815E220E030E040E06AE0C7010A
:1002B0000E94ED040E94A6050E94DF0541E060E077
:1002C00070E084E990E00E946D0A813011F4C09AD8
:1002D00001C0C09841E061E070E084E990E00E94D4
:1002E0006D0A813011F4C19A01C0C19841E062E009
:1002F00070E084E990E00E946D0A813011F4C29AA6
:1003000001C0C29841E063E070E084E990E00E949F
:100310006D0A813011F4C39A01C0C39841E064E0D2
:1003200070E084E990E00E946D0A813011F4C49A73
:1003300001C0C49841E065E070E084E990E00E946B
:100340006D0A813011F4C59A01C0C59841E066E09C
:1003500070E084E990E00E946D0A813011F4C69A41
:1003600001C0C69841E067E070E084E990E00E9437
:100370006D0A813011F4C79A01C0C79841E068E066
:1003800070E084E990E00E946D0A813011F4A89A2F
:1003900001C0A89841E069E070E084E990E00E9423
:1003A0006D0A813011F4A99A01C0A99841E06AE070
:1003B00070E084E990E00E946D0A813011F4AA9AFD
:1003C00001C0AA9841E06BE070E084E990E00E94EF
:1003D0006D0A813011F4AB9A01C0AB9841E06CE03A
:1003E00070E084E990E00E946D0A813011F4AC9ACB
:1003F00001C0AC9841E06DE070E084E990E00E94BB
:100400006D0A813011F4AD9A01C0AD9841E06EE003
:1004100070E084E990E00E946D0A813011F4AE9A98
:1004200001C0AE9841E06FE070E084E990E00E9486
:100430006D0A813011F4AF9A3FCFAF983DCFCF9284
:10044000DF92EF92FF920F931F93CF93DF937C0184
:10045000CC24DD24EA0143E0683E7407D0F1CB01EF
:100460008C0F9D1F895F9340A0F58B01085E1340A0
:100470002115310521F021303105B1F02DC01C16B8
:100480001D0654F5AE01C930D10514F048E050E026
:10049000B80184E990E00E946D0AF70181937F0121
:1004A0002897085F1F4FEBCF1C161D06ACF4F70111
:1004B00021917F01AE01C930D10514F048E050E030
:1004C000B80184E990E00E94380A2897085F1F4F1E
:1004D000EBCF81E0C82ED12CC601DF91CF911F91C7
:1004E0000F91FF90EF90DF90CF90089581E090E022
:1004F000089581E090E00895AF92BF92CF92DF928D
:10050000EF92FF920F931F93CF93DF935C01EB0168
:100510007A01CC24DD248A01C89903C021E0422F4E
:1005200002C020E041E0B60182E990E00E94380A72
:10053000C99903C021E0422F02C020E041E061E000
:1005400070E082E990E00E94380ACA9903C021E075
:10055000422F02C020E041E062E070E082E990E0DA
:100560000E94380ACB9903C021E0422F02C020E04C
:1005700041E063E070E082E990E00E94380ACC99A3
:1005800003C021E0422F02C020E041E064E070E0BF
:1005900082E990E00E94380ACD9903C021E0422F01
:1005A00002C020E041E065E070E082E990E00E9456
:1005B000380ACE9903C021E0422F02C020E041E07A
:1005C00066E070E082E990E00E94380ACF9903C0AB
:1005D00021E0422F02C020E041E067E070E082E9C4
:1005E00090E00E94380A809903C021E0422F02C0A7
:1005F00020E041E068E070E082E990E00E94380A83
:10060000819903C021E0422F02C020E041E069E06F
:1006100070E082E990E00E94380A829903C021E0EC
:10062000422F02C020E041E06AE070E082E990E001
:100630000E94380A839903C021E0422F02C020E0C3
:1006400041E06BE070E082E990E00E94380A849912
:1006500003C021E0422F02C020E041E06CE070E0E6
:1006600082E990E00E94380A859903C021E0422F78
:1006700002C020E041E06DE070E082E990E00E947D
:10068000380A869903C021E0422F02C020E041E0F1
:100690006EE070E082E990E00E94380A879903C01A
:1006A00021E0422F02C020E041E06FE070E082E9EB
:1006B00090E00E94380A23E0C83ED20700F1CE0144
:1006C0008E0D9F1D895F9340D0F4C85ED3401E14E9
:1006D0001F04C4F4A8010930110514F048E050E0EB
:1006E000BE0182E990E00E946D0AF50181935F01ED
:1006F0000850104028961016110664F303C091E0CC
:10070000C92ED12CC601DF91CF911F910F91FF907F
:10071000EF90DF90CF90BF90AF900895539A8823C9
:1007200019F08AB1806902C08AB18F768AB96623CE
:1007300021F08AB188628AB9089555980895BF92C8
:10074000CF92DF92EF92FF920F931F93CF936A01A4
:100750007B01B22EC0E084E0CC0CDD1CEE1CFF1C43
:100760008A95D1F760E074E284EF90E0A7019601EA
:100770000E94D40ADA01C901815089B901301105FA
:1007800029F00230110519F4C0E201C0C0E32B2D9D
:1007900033272730310529F02830310519F4C66098
:1007A00001C0C460C068C0BD60E0862F0E948E0397
:1007B00081E090E0CF911F910F91FF90EF90DF903B
:1007C000CF90BF9008958CB981E090E00895FC012E
:1007D0008CB1808381E090E008951F920F920FB654
:1007E0000F9211242F933F934F935F936F937F93B7
:1007F0008F939F93AF93BF93EF93FF93E091DE00AE
:10080000F091DF000995FF91EF91BF91AF919F911A
:100810008F917F916F915F914F913F912F910F90A9
:100820000FBE0F901F9018951F920F920FB60F9248
:1008300011242F933F934F935F936F937F938F93E5
:100840009F93AF93BF93EF93FF93E091E200F091FA
:10085000E3000995FF91EF91BF91AF919F918F9127
:100860007F916F915F914F913F912F910F900FBEAC
:100870000F901F9018951092980081E090E00895D5
:1008800021E020939800909397008093960081E058
:1008900090E00895FC0120E080919800882349F0C1
:1008A0008091960090919700918380832093980087
:1008B00021E0822F992787FD909508958EB58A7F34
:1008C0008EBD89B78F7E89BF88B7806188BF089544
:1008D000AA27BB27BC01CD0129E03DE340E050E061
:1008E0000E94B50ADC01CB01BC01CD0120E23EE44F
:1008F00040E050E00E94D40A30939A00209399007F
:100900001FBC1EBC1FBC8EB58A7F8EBD89B78F7E73
:1009100089BF88B7806188BF81E090E008951DBCE1
:100920001CBC2091990030919A002115310529F0C5
:1009300089B7806189BF3BBD2ABD8EB585608EBDFC
:1009400008951F920F920FB60F9211242F933F9389
:100950004F935F936F937F938F939F93AF93BF93C7
:10096000EF93FF93E091E000F091E1000995FF9192
:10097000EF91BF91AF919F918F917F916F915F9117
:100980004F913F912F910F900FBE0F901F90189590
:10099000DC014FEF242F615070408FEF6F3F7807DD
:1009A00099F08D914827842F9927FC01EC5AFE4F2E
:1009B000449142278C5A9F4FFC0124916150704012
:1009C000FFEF6F3F7F0769F7822F9927382F222784
:1009D000842F9927822B932B0895EF92FF920F93E8
:1009E0001F93CF93DF93FC01762F642FA901980109
:1009F000C0E0D0E0872F8150873F20F47093A5009E
:100A0000EF2B19F0C2E0D0E046C084EC96E0909362
:100A1000AB008093AA0081ED96E09093AD008093A7
:100A2000AC0087E197E09093A9008093A8008AED3D
:100A300096E09093AF008093AE00D093B100C09346
:100A4000B00084E797E09093E3008093E20081EDAB
:100A500097E09093DF008093DE0088E198E0909328
:100A6000E1008093E0008701872F0E948206EC015D
:100A7000892B89F40E943B04882319F4C3E0D0E059
:100A80000AC0D093A700C093A60081E090E09093A5
:100A9000910080939000CE01DF91CF911F910F9133
:100AA000FF90EF900895482F1816ACF5F894611553
:100AB000710501F120E030E0E0E6F0E08181928113
:100AC000009719F08617970721F44083728361839A
:100AD00006C02F5F3F4F3396203131057CF3203124
:100AE0003105A9F484E090E014C01C92FD0112824B
:100AF00011820DC0E0E6F0E0DF01808133968417BB
:100B0000A1F3139680E0ED38F807B9F3B4F380E071
:100B100090E07894089582E090E00895CF93DF9379
:100B2000C0E0D0E08091900090919100019741F455
:100B3000E091B000F091B100309721F0099502C02A
:100B4000C6E0D0E0CE01DF91CF910895CF93DF933F
:100B5000C0E0D0E08091900090919100019751F415
:100B6000E091AA00F091AB000995D0939100C09359
:100B7000900002C0C6E0D0E0CE01DF91CF91089591
:100B8000CF93DF93C0919000D0919100209769F4AA
:100B9000E091AC00F091AD00099581E090E0909378
:100BA000910080939000CE0107C0219719F480E056
:100BB00090E002C086E090E0DF91CF910895CF935E
:100BC000DF93CDB7DEB722970FB6F894DEBF0FBE26
:100BD000CDBF8091900090919100892B19F086E013
:100BE00090E087C0CE0101960E944A04813009F04E
:100BF0007EC089819A818130910519F0029769F14F
:100C000076C0E091AE00F091AF0041EA50E06DE9AE
:100C100070E08FE990E00995892B09F068C0909108
:100C20009F008091A500981719F0992309F05FC0E3
:100C300082E090E00E9440045AC0FD01218132818F
:100C400061EA70E080919D0090919E00F901099504
:100C50009093A4008093A3001CC0E0919D00F091AC
:100C60009E0020812093A00081E090E09093A4005A
:100C70008093A300E0E6F0E0DF01808133968823D3
:100C800041F08217D1F2139680E0ED38F807A9F30E
:100C9000A4F380919F00882351F18091A30090914B
:100CA000A400892BA9F0E0919D00F0919E00809115
:100CB000A00080688083E0919D00F0919E0080916B
:100CC000A300818382E090E09093A2008093A10032
:100CD000E091A800F091A9004091A1005091A200DC
:100CE00060919D0070919E008091A500099580E023
:100CF00090E022960FB6F894DEBF0FBECDBFDF9115
:100D0000CF910895CF92DF92EF92FF920F931F93AE
:100D1000CF93DF93E62F69017A01C0E0D0E0F89429
:100D200028E0B701A6018E2F0E949F038130F9F4BD
:100D300081E0C8168BE4D80680E0E80680E0F8067B
:100D400028F023E230E040E050E00CC0CC0CDD1C89
:100D5000EE1CFF1C60EA7FE787E190E0A7019601A7
:100D60000E94D40AC9010E946804813011F0C3E0D6
:100D7000D0E07894CE01DF91CF911F910F91FF9039
:100D8000EF90DF90CF900895F8941092B5001092F4
:100D9000B40060E081E00E948E030E948F0478948A
:100DA0000895F89460E0862F0E948E030E945E04EE
:100DB00078940895CF92DF92EF92FF920F931F9352
:100DC000CF93DF93EC017B018A01CC24DD24F894DE
:100DD0008091BA009091BB000497D8F06091BA005E
:100DE0007091BB0088EE90E00E94C804892B89F4C2
:100DF0008091E80088838091BA009091BB000397AE
:100E0000F8019183808389EE90E0F70191838083DC
:100E100003C085E0C82ED12C7894C601DF91CF9114
:100E20001F910F91FF90EF90DF90CF9008950F9357
:100E30001F93CF93DF9300E010E0F894C091B400CB
:100E4000D091B500C130D10509F045C0FB01319703
:100E5000F093B700E093B600D093B900C093B80008
:100E600080838091B8009091B900840F951F909372
:100E7000B9008093B8006091B8007091B90080917A
:100E8000B6009091B7000E94C8049C018091B80000
:100E90009091B900FC01E851FF4F20830196909397
:100EA000B9008093B8008091B8009091B900FC011E
:100EB000E851FF4F232F3327208301969093B900E9
:100EC0008093B800D093B300C093B20061E080E09B
:100ED0000E948E0302C005E010E07894C801DF9103
:100EE000CF911F910F910895CF93DF93CDB7DEB7C8
:100EF00021970FB6F894DEBF0FBECDBFCE0101968D
:100F00000E94E7038091B4009091B5008130910573
:100F100049F081309105C0F182309105C1F003970D
:100F200099F134C01092BB001092BA008091BA00BF
:100F30009091BB00FC01E851FF4F2981208301966D
:100F40009093BB008093BA0082E090E019C080913A
:100F5000BA009091BB008F3F910509F078F4809121
:100F6000BA009091BB00FC01E851FF4F298120831A
:100F700001969093BB008093BA0006C083E090E096
:100F80009093B5008093B4000E948F0480E090E0BD
:100F900021960FB6F894DEBF0FBECDBFDF91CF9183
:100FA00008951F93CF93DF9310E08091B20090914A
:100FB000B300009719F0019731F032C0612F81E042
:100FC0000E948E032DC0C091B800D091B900209727
:100FD000D1F0E091B600F091B70080810E94E30368
:100FE0008091B6009091B70001969093B7008093DE
:100FF000B6008091B8009091B90001979093B90024
:101000008093B8000DC083E090E00E944004182F48
:1010100060E081E00E948E03D093B300C093B200E1
:10102000812F992787FD9095DF91CF911F9108958A
:10103000CF93C0E08091B4009091B50082309105CB
:1010400031F08330910540F4009731F402C081E023
:1010500090E00E944004C82F0E945E0481E090E06E
:101060009093B5008093B4008C2F992787FD9095BD
:10107000CF910895EF92FF921F93CF93DF93FC01DE
:10108000EB01EE24FF2488819981059709F047C080
:1010900081819927782F662782819927682B792B60
:1010A0006F5F7F4F83819927582F44278481992729
:1010B000482B592BCA0101978F5C974080F5F98224
:1010C000E88281E081938881998101969983888360
:1010D000CA01877090709A01A3E036952795AA956A
:1010E000E1F7892B19F0122F1F5F01C0122F119306
:1010F0008881998101969983888320E030E0CF012F
:101100000E941F02009721F00E94930A7C010AC0EE
:1011100088819981810F911D9983888303C083E021
:10112000E82EF12CC701DF91CF911F91FF90EF9036
:1011300008950F931F93CF93DF93CDB7DEB7229718
:101140000FB6F894DEBF0FBECDBFDC01FB0100E09F
:1011500010E080819181059741F5FD0181819927FA
:10116000782F662782819927682B792B6F5F7F4FB5
:1011700094819923D1F483818F3F11F08823A9F4BE
:101180009A838F3F19F481E0898301C0998321E01C
:1011900030E0A901CE01820F931F0E941F02009729
:1011A00031F00E94930A8C0102C003E010E0C801F4
:1011B00022960FB6F894DEBF0FBECDBFDF91CF9160
:1011C0001F910F9108950F931F93CF93DF93FC010D
:1011D0008B01C0E0D0E0DB018D919C910697C0F1BE
:1011E00081819927782F662782819927682B792B0F
:1011F0006F5F7F4F83819927582F442784819927D8
:10120000482B592BA581CA01877090709A01B3E0D1
:1012100036952795BA95E1F7892B09F02F5FCA011A
:101220000197805B9740A0F42A1791F421E030E009
:10123000CF0106960E941F02009721F00E94930A98
:10124000EC0108C085E090E0F8019183808302C042
:10125000C3E0D0E0CE01DF91CF911F910F910895AF
:10126000EF92FF920F931F93CF93DF93DC01EB017B
:10127000EE24FF24888199810597E9F5FD0181819C
:101280009927782F662782819927682B792B6F5FA2
:101290007F4F83819927582F442784819927482B92
:1012A000592BCA0101978C37910528F5F982E882FC
:1012B00084E081939F018881998101969983888335
:1012C0008A01040F151FFD01018388819981019610
:1012D00099838883C90101960E947602009721F0C4
:1012E0000E94930A7C010AC088819981800F911F16
:1012F0009983888303C083E0E82EF12CC701DF9136
:10130000CF911F910F91FF90EF9008950F931F932E
:10131000CF93DF93F82FE62FBA01E90100E010E048
:10132000C9010296809728F5F093BC0082E090E016
:101330009093DD008093DC00EE2311F08FEF01C06D
:101340008E2F8093BD002097B1F08091DC009091AA
:10135000DD00AE0184549F4F0E94A80A8091DC00FA
:101360009091DD008C0F9D1F9093DD008093DC0039
:1013700002C004E010E0C801DF91CF911F910F91EE
:1013800008950F931F938B012091DC003091DD00B5
:10139000A9016CEB70E001960E94A80A8091DC0024
:1013A0009091DD000196F8019183808380E090E0C8
:1013B0001F910F910895EF92FF921F93CF93DF93A8
:1013C000FC01EB01EE24FF2488819981059709F047
:1013D00045C081819927782F662782819927682BBC
:1013E000792B6F5F7F4F83819927582F4427848102
:1013F0009927482B592BCA0101978F5C974070F5AC
:10140000F982E88282E081938881998101969983AB
:101410008883CA01877090709A01A3E0369527955A
:10142000AA95E1F7892B19F0122F1F5F01C0122F27
:10143000119388819981019699838883CF010E94B5
:101440007C02009721F00E94930A7C010AC08881E7
:101450009981810F911D9983888303C083E0E82ED1
:10146000F12CC701DF91CF911F91FF90EF9008956C
:10147000FB01A42F622F7727AF0147705070042E15
:1014800002C0660F771F0A94E2F721E030E002C045
:10149000220F331FAA95E2F72150304002C0220FDD
:1014A000331F4A95E2F7B3E0F695E795BA95E1F771
:1014B000E80FF91F8081992741815527542F442730
:1014C000842B952B2095309582239323862B972B65
:1014D0008083892F9927818308959B01642FD901E7
:1014E000A770B07041E050E002C0440F551F6A95EC
:1014F000E2F741505040F90163E0F695E7956A95AF
:10150000E1F7E80FF91F8081992721813327322FD6
:101510002227822B932B02C096958795AA95E2F7F6
:101520008423992708958130910549F081309105F0
:1015300018F0079739F009C080E090E0089582E044
:1015400090E0089586E090E0089584E090E00895AA
:10155000FB01DC0140FF05C002C001900D9201902B
:101560000D9242505040C8F70895629FD001739F7A
:10157000F001829FE00DF11D649FE00DF11D929F2F
:10158000F00D839FF00D749FF00D659FF00D99276E
:10159000729FB00DE11DF91F639FB00DE11DF91F92
:1015A000BD01CF0111240895A1E21A2EAA1BBB1B75
:1015B000FD010DC0AA1FBB1FEE1FFF1FA217B3071F
:1015C000E407F50720F0A21BB30BE40BF50B661F35
:1015D000771F881F991F1A9469F7609570958095F9
:0C15E00090959B01AC01BD01CF01089566
:1015EC0011C109043009013A080599080FE30802F2
:1015FC00DB090000000000000000000000000000FB
:10160C0000000000000000000000000000000000CE
:02161C000200CA
:00000001FF
