:100000000C9446010C9463010C9463010C946301FD
:100010000C9463010C9463010C9463010C946301D0
:100020000C9463010C9463010C9463010C946301C0
:100030000C94C6040C9463010C9463010C9463014A
:100040000C9463010C9463010C9438040C94110417
:100050000C9463010C9463010C9463010C94630190
:100060000C9463010C9463010C9463010C94630180
:100070000C9463010C9463010C9463010C94630170
:100080000C9463010C9463010C94630100C0C101E2
:10009000C30302C2C60607C705C5C404CC0C0DCDF8
:1000A0000FCFCE0E0ACACB0BC90908C8D81819D968
:1000B0001BDBDA1A1EDEDF1FDD1D1CDC14D4D51598
:1000C000D71716D6D21213D311D1D010F03031F188
:1000D00033F3F23236F6F737F53534F43CFCFD3DB8
:1000E000FF3F3EFEFA3A3BFB39F9F83828E8E929A8
:1000F000EB2B2AEAEE2E2FEF2DEDEC2CE42425E558
:1001000027E7E62622E2E323E12120E0A06061A1C7
:1001100063A3A26266A6A767A56564A46CACAD6D77
:10012000AF6F6EAEAA6A6BAB69A9A86878B8B979E7
:10013000BB7B7ABABE7E7FBF7DBDBC7CB47475B517
:1001400077B7B67672B2B373B17170B05090915107
:100150009353529296565797559594549C5C5D9D37
:100160005F9F9E5E5A9A9B5B995958988848498927
:100170004B8B8A4A4E8E8F4F8D4D4C8C44848545D7
:1001800087474686824243834181804000C1814047
:1001900001C0804101C0804100C1814001C0804157
:1001A00000C1814000C1814001C0804101C0804147
:1001B00000C1814000C1814001C0804100C1814037
:1001C00001C0804101C0804100C1814001C0804127
:1001D00000C1814000C1814001C0804100C1814017
:1001E00001C0804101C0804100C1814000C1814007
:1001F00001C0804101C0804100C1814001C08041F7
:1002000000C1814000C1814001C0804101C08041E6
:1002100000C1814000C1814001C0804100C18140D6
:1002200001C0804101C0804100C1814000C18140C6
:1002300001C0804101C0804100C1814001C08041B6
:1002400000C1814000C1814001C0804100C18140A6
:1002500001C0804101C0804100C1814001C0804196
:1002600000C1814000C1814001C0804101C0804186
:1002700000C1814000C1814001C0804100C1814076
:1002800001C0804101C0804100C1814011241FBED6
:10029000CFEFD0E1DEBFCDBF11E0A0E0B1E0E6E3FB
:1002A000F6E100E00BBF02C007900D92A233B10748
:1002B000D9F712E0A2E3B1E001C01D92A838B1075E
:1002C000E1F70C9465010C940000CFEFD0E1DEBFA4
:1002D000CDBF8FEF87BB84BB12BA11BA1BBA1ABA53
:1002E000EE24FF2400E815E220E030E040E06AE080
:1002F000C7010E9412050E94CB050E94040641E03E
:1003000060E070E084E391E00E94920A813011F491
:10031000C09A01C0C09841E061E070E084E391E0E0
:100320000E94920A813011F4C19A01C0C19841E043
:1003300062E070E084E391E00E94920A813011F45F
:10034000C29A01C0C29841E063E070E084E391E0AA
:100350000E94920A813011F4C39A01C0C39841E00F
:1003600064E070E084E391E00E94920A813011F42D
:10037000C49A01C0C49841E065E070E084E391E074
:100380000E94920A813011F4C59A01C0C59841E0DB
:1003900066E070E084E391E00E94920A813011F4FB
:1003A000C69A01C0C69841E067E070E084E391E03E
:1003B0000E94920A813011F4C79A01C0C79841E0A7
:1003C00068E070E084E391E00E94920A813011F4C9
:1003D000A89A01C0A89841E069E070E084E391E048
:1003E0000E94920A813011F4A99A01C0A99841E0B3
:1003F0006AE070E084E391E00E94920A813011F497
:10040000AA9A01C0AA9841E06BE070E084E391E011
:100410000E94920A813011F4AB9A01C0AB9841E07E
:100420006CE070E084E391E00E94920A813011F464
:10043000AC9A01C0AC9841E06DE070E084E391E0DB
:100440000E94920A813011F4AD9A01C0AD9841E04A
:100450006EE070E084E391E00E94920A813011F432
:10046000AE9A01C0AE9841E06FE070E084E391E0A5
:100470000E94920A813011F4AF9A3FCFAF983DCFDE
:10048000CF92DF92EF92FF920F931F93CF93DF9360
:100490007C01CC24DD24EA0143E0683E7407D0F1FE
:1004A000CB018C0F9D1F895F9340A0F58B01085EE7
:1004B00013402115310521F021303105B1F02DC057
:1004C0001C161D0654F5AE01C930D10514F048E0E4
:1004D00050E0B80184E391E00E94920AF701819311
:1004E0007F012897085F1F4FEBCF1C161D06ACF449
:1004F000F70121917F01AE01C930D10514F048E028
:1005000050E0B80184E391E00E945D0A2897085FFB
:100510001F4FEBCF81E0C82ED12CC601DF91CF91C8
:100520001F910F91FF90EF90DF90CF90089581E0A1
:1005300090E0089581E090E00895AF92BF92CF924D
:10054000DF92EF92FF920F931F93CF93DF935C01A3
:10055000EB017A01CC24DD248A01809903C021E0DB
:10056000422F02C020E041E0B60182E391E00E9408
:100570005D0A819903C021E0422F02C020E041E0E2
:1005800061E070E082E391E00E945D0A829903C01D
:1005900021E0422F02C020E041E062E070E082E30F
:1005A00091E00E945D0A839903C021E0422F02C0BE
:1005B00020E041E063E070E082E391E00E945D0AA8
:1005C000849903C021E0422F02C020E041E064E0B2
:1005D00070E082E391E00E945D0A859903C021E00A
:1005E000422F02C020E041E065E070E082E391E04C
:1005F0000E945D0A869903C021E0422F02C020E0DC
:1006000041E066E070E082E391E00E945D0A879934
:1006100003C021E0422F02C020E041E067E070E02B
:1006200082E391E00E945D0AC89903C021E0422F55
:1006300002C020E041E068E070E082E391E00E94C7
:100640005D0AC99903C021E0422F02C020E041E0C9
:1006500069E070E082E391E00E945D0ACA9903C0FC
:1006600021E0422F02C020E041E06AE070E082E336
:1006700091E00E945D0ACB9903C021E0422F02C0A5
:1006800020E041E06BE070E082E391E00E945D0ACF
:10069000CC9903C021E0422F02C020E041E06CE091
:1006A00070E082E391E00E945D0ACD9903C021E0F1
:1006B000422F02C020E041E06DE070E082E391E073
:1006C0000E945D0ACE9903C021E0422F02C020E0C3
:1006D00041E06EE070E082E391E00E945D0ACF9914
:1006E00003C021E0422F02C020E041E06FE070E053
:1006F00082E391E00E945D0A23E0C83ED20700F148
:10070000CE018E0D9F1D895F9340D0F4C85ED3400B
:100710001E141F04C4F4A8010930110514F048E0A8
:1007200050E0BE0182E391E00E94920AF5018193BC
:100730005F010850104028961016110664F303C09C
:1007400091E0C92ED12CC601DF91CF911F910F915D
:10075000FF90EF90DF90CF90BF90AF900895539AA5
:10076000882319F08AB1806902C08AB18F768AB96C
:10077000662321F08AB188628AB908955598089550
:10078000BF92CF92DF92EF92FF920F931F93CF937E
:100790006A017B01B22EC0E084E0CC0CDD1CEE1CB3
:1007A000FF1C8A95D1F760E074E284EF90E0A70126
:1007B00096010E94F90ADA01C901815089B9013014
:1007C000110529F00230110519F4C0E201C0C0E39F
:1007D0002B2D33272730310529F02830310519F426
:1007E000C66001C0C460809195008C2B80939500F9
:1007F00060E0862F0E94AF0381E090E0CF911F91CF
:100800000F91FF90EF90DF90CF90BF9008958CB93B
:1008100081E090E00895FC018CB1808381E090E05C
:1008200008951F920F920FB60F9211242F933F93AA
:100830004F935F936F937F938F939F93AF93BF93E8
:10084000EF93FF93E0917E01F0917F010995FF9175
:10085000EF91BF91AF919F918F917F916F915F9138
:100860004F913F912F910F900FBE0F901F901895B1
:100870001F920F920FB60F9211242F933F934F9315
:100880005F936F937F938F939F93AF93BF93EF93F8
:10089000FF93E0918201F09183010995FF91EF911F
:1008A000BF91AF919F918F917F916F915F914F9188
:1008B0003F912F910F900FBE0F901F90189510929F
:1008C000380181E090E0089521E020933801909371
:1008D00037018093360181E090E00895FC0120E02B
:1008E00080913801882349F0809136019091370139
:1008F000918380832093380121E0822F992787FDFF
:10090000909508958EB58A7F8EBD87B78F7E87BFFD
:1009100086B7806186BF0895AA27BB27BC01CD0199
:1009200029E03DE340E050E00E94DA0ADC01CB011F
:10093000BC01CD0120E23EE440E050E00E94F90A13
:1009400030933A01209339011FBC1EBC10927A00EB
:100950008EB58A7F8EBD87B78F7E87BF86B7806151
:1009600086BF81E090E008951DBC1CBC2091390138
:1009700030913A012115310529F087B7806187BF91
:100980003BBD2ABD8EB585608EBD08951F920F9226
:100990000FB60F9211242F933F934F935F936F9352
:1009A0007F938F939F93AF93BF93EF93FF93E091C8
:1009B0008001F09181010995FF91EF91BF91AF9175
:1009C0009F918F917F916F915F914F913F912F9167
:1009D0000F900FBE0F901F901895DC014FEF242F42
:1009E000615070408FEF6F3F780799F08D914827E5
:1009F000842F9927FC01E457FE4F449142278457E6
:100A00009F4FFC01249161507040FFEF6F3F7F07C3
:100A100069F7822F9927382F2227842F9927822B35
:100A2000932B0895EF92FF920F931F93CF93DF9331
:100A3000FC01762F642FA9019801C0E0D0E0872F38
:100A40008150873F20F470934501EF2B19F0C2E0ED
:100A5000D0E046C089EE96E090934B0180934A0126
:100A600086EF96E090934D0180934C018CE397E0E4
:100A700090934901809348018FEF96E090934F0146
:100A800080934E01D0935101C093500189E997E0C2
:100A9000909383018093820186EF97E090937F018A
:100AA00080937E018DE398E0909381018093800193
:100AB0008701872F0E94A706EC01892B89F40E94E9
:100AC0005F04882319F4C3E0D0E00AC0D093470143
:100AD000C093460181E090E0909331018093300112
:100AE000CE01DF91CF911F910F91FF90EF9008956C
:100AF000482F1816ACF5F8946115710501F120E046
:100B000030E0E0E0F1E081819281009719F08617F2
:100B1000970721F440837283618306C02F5F3F4FA4
:100B20003396203131057CF320313105A9F484E07E
:100B300090E014C01C92FD01128211820DC0E0E011
:100B4000F1E0DF01808133968417A1F3139681E0F1
:100B5000ED32F807B9F3B4F380E090E078940895AB
:100B600082E090E00895CF93DF93C0E0D0E08091E1
:100B7000300190913101019741F4E0915001F091E1
:100B80005101309721F0099502C0C6E0D0E0CE01B6
:100B9000DF91CF910895CF93DF93C0E0D0E08091B3
:100BA000300190913101019751F4E0914A01F091A7
:100BB0004B010995D0933101C093300102C0C6E0CA
:100BC000D0E0CE01DF91CF910895CF93DF93C09114
:100BD0003001D0913101209769F4E0914C01F091FE
:100BE0004D01099581E090E09093310180933001AF
:100BF000CE0107C0219719F480E090E002C086E0A2
:100C000090E0DF91CF910895CF93DF93CDB7DEB71A
:100C100022970FB6F894DEBF0FBECDBF8091300192
:100C200090913101892B19F086E090E087C0CE01C8
:100C300001960E946E04813009F07EC089819A81FC
:100C40008130910519F0029769F176C0E0914E016B
:100C5000F0914F0141E451E06DE371E08FE391E0E9
:100C60000995892B09F068C090913F018091450159
:100C7000981719F0992309F05FC082E090E00E9474
:100C800064045AC0FD012181328161E471E08091E8
:100C90003D0190913E01F9010995909344018093A3
:100CA00043011CC0E0913D01F0913E012081209361
:100CB000400181E090E09093440180934301E0E0A3
:100CC000F1E0DF0180813396882341F08217D1F271
:100CD000139681E0ED32F807A9F3A4F380913F0168
:100CE000882351F18091430190914401892BA9F00F
:100CF000E0913D01F0913E01809140018068808348
:100D0000E0913D01F0913E0180914301818382E0B9
:100D100090E09093420180934101E0914801F0916D
:100D20004901409141015091420160913D01709112
:100D30003E0180914501099580E090E022960FB632
:100D4000F894DEBF0FBECDBFDF91CF910895CF9253
:100D5000DF92EF92FF920F931F93CF93DF93E62FD3
:100D600069017A01C0E0D0E0F89428E0B701A6015B
:100D70008E2F0E94C0038130F9F481E0C8168BE405
:100D8000D80680E0E80680E0F80628F023E230E0AC
:100D900040E050E00CC0CC0CDD1CEE1CFF1C60EAF7
:100DA0007FE787E190E0A70196010E94F90AC90157
:100DB0000E948C04813011F0C3E0D0E07894CE0121
:100DC000DF91CF911F910F91FF90EF90DF90CF9027
:100DD0000895F894109255011092540160E081E05A
:100DE0000E94AF030E94B40478940895F89460E0E0
:100DF000862F0E94AF030E94820478940895CF92B8
:100E0000DF92EF92FF920F931F93CF93DF93EC014A
:100E10007B018A01CC24DD24F89480915A019091C1
:100E20005B010497D8F060915A0170915B0188E8EA
:100E300091E00E94ED04892B89F4809188018883D8
:100E400080915A0190915B010397F801918380830F
:100E500089E891E0F7019183808303C085E0C82E83
:100E6000D12C7894C601DF91CF911F910F91FF9003
:100E7000EF90DF90CF9008950F931F93CF93DF9360
:100E800000E010E0F894C0915401D0915501C130B8
:100E9000D10509F045C0FB013197F0935701E0936C
:100EA0005601D0935901C093580180838091580115
:100EB00090915901840F951F909359018093580187
:100EC000609158017091590180915601909157019C
:100ED0000E94ED049C018091580190915901FC0100
:100EE000E857FE4F20830196909359018093580153
:100EF0008091580190915901FC01E857FE4F232F32
:100F00003327208301969093590180935801D09301
:100F10005301C093520161E080E00E94AF0302C020
:100F200005E010E07894C801DF91CF911F910F91F7
:100F30000895CF93DF93CDB7DEB721970FB6F8941E
:100F4000DEBF0FBECDBFCE0101960E940B04809183
:100F50005401909155018130910549F081309105FE
:100F6000C0F182309105C1F0039799F134C010921D
:100F70005B0110925A0180915A0190915B01FC0132
:100F8000E857FE4F29812083019690935B0180935F
:100F90005A0182E090E019C080915A0190915B0162
:100FA0008F3F910509F078F480915A0190915B018F
:100FB000FC01E857FE4F29812083019690935B0145
:100FC00080935A0106C083E090E09093550180938E
:100FD00054010E94B40480E090E021960FB6F8948A
:100FE000DEBF0FBECDBFDF91CF9108951F93CF938A
:100FF000DF9310E08091520190915301009719F016
:10100000019731F032C0612F81E00E94AF032DC003
:10101000C0915801D09159012097D1F0E09156012B
:10102000F091570180810E940704809156019091B0
:101030005701019690935701809356018091580172
:1010400090915901019790935901809358010DC0D7
:1010500083E090E00E946404182F60E081E00E9429
:10106000AF03D0935301C0935201812F992787FD7D
:101070009095DF91CF911F910895CF93C0E080911B
:101080005401909155018230910531F083309105E2
:1010900040F4009731F402C081E090E00E946404C3
:1010A000C82F0E94820481E090E0909355018093C4
:1010B00054018C2F992787FD9095CF910895EF9239
:1010C000FF921F93CF93DF93FC01EB01EE24FF24EB
:1010D00088819981059709F047C081819927782FE8
:1010E000662782819927682B792B6F5F7F4F8381D9
:1010F0009927582F442784819927482B592BCA01B7
:1011000001978F5C974080F5F982E88281E08193B6
:1011100088819981019699838883CA01877090702C
:101120009A01A3E036952795AA95E1F7892B19F046
:10113000122F1F5F01C0122F119388819981019690
:101140009983888320E030E0CF010E94400200971D
:1011500021F00E94B80A7C010AC088819981810F20
:10116000911D9983888303C083E0E82EF12CC70189
:10117000DF91CF911F91FF90EF9008950F931F93F0
:10118000CF93DF93CDB7DEB722970FB6F894DEBFCB
:101190000FBECDBFDC01FB0100E010E0808191813A
:1011A000059741F5FD0181819927782F6627828176
:1011B0009927682B792B6F5F7F4F94819923D1F406
:1011C00083818F3F11F08823A9F49A838F3F19F40C
:1011D00081E0898301C0998321E030E0A901CE013B
:1011E000820F931F0E944002009731F00E94B80ABC
:1011F0008C0102C003E010E0C80122960FB6F894FB
:10120000DEBF0FBECDBFDF91CF911F910F9108952B
:101210000F931F93CF93DF93FC018B01C0E0D0E0CD
:10122000DB018D919C910697C0F181819927782FE0
:10123000662782819927682B792B6F5F7F4F838187
:101240009927582F442784819927482B592BA5810A
:10125000CA01877090709A01B3E036952795BA95C8
:10126000E1F7892B09F02F5FCA010197805B974056
:10127000A0F42A1791F421E030E0CF0106960E94F5
:101280004002009721F00E94B80AEC0108C085E0F6
:1012900090E0F8019183808302C0C3E0D0E0CE01EA
:1012A000DF91CF911F910F910895EF92FF920F93CD
:1012B0001F93CF93DF93DC01EB01EE24FF248881A1
:1012C00099810597E9F5FD0181819927782F662796
:1012D00082819927682B792B6F5F7F4F83819927B4
:1012E000582F442784819927482B592BCA010197ED
:1012F0008C37910528F5F982E88284E081939F017B
:10130000888199810196998388838A01040F151F2A
:10131000FD01018388819981019699838883C901A0
:1013200001960E949702009721F00E94B80A7C0162
:101330000AC088819981800F911F9983888303C097
:1013400083E0E82EF12CC701DF91CF911F910F911F
:10135000FF90EF9008950F931F93CF93DF93F82F93
:10136000E62FBA01E90100E010E0C901029680977A
:1013700028F5F0935C0182E090E090937D018093EA
:101380007C01EE2311F08FEF01C08E2F80935D0161
:101390002097B1F080917C0190917D01AE01845A3B
:1013A0009E4F0E94CD0A80917C0190917D018C0F0F
:1013B0009D1F90937D0180937C0102C004E010E0AA
:1013C000C801DF91CF911F910F9108950F931F9343
:1013D0008B0120917C0130917D01A9016CE571E0C8
:1013E00001960E94CD0A80917C0190917D01019629
:1013F000F8019183808380E090E01F910F91089520
:10140000EF92FF921F93CF93DF93FC01EB01EE2449
:10141000FF2488819981059709F045C0818199272A
:10142000782F662782819927682B792B6F5F7F4FF2
:1014300083819927582F442784819927482B592B3A
:10144000CA0101978F5C974070F5F982E88282E0CB
:10145000819388819981019699838883CA018770D5
:1014600090709A01A3E036952795AA95E1F7892B0C
:1014700019F0122F1F5F01C0122F119388819981DB
:10148000019699838883CF010E949D02009721F0E5
:101490000E94B80A7C010AC088819981810F911D40
:1014A0009983888303C083E0E82EF12CC701DF9184
:1014B000CF911F91FF90EF900895FB01A42F622F11
:1014C0007727AF0147705070042E02C0660F771F58
:1014D0000A94E2F721E030E002C0220F331FAA9500
:1014E000E2F72150304002C0220F331F4A95E2F745
:1014F000B3E0F695E795BA95E1F7E80FF91F80811B
:10150000992741815527542F4427842B952B2095CB
:10151000309582239323862B972B8083892F9927BD
:10152000818308959B01642FD901A770B07041E0B9
:1015300050E002C0440F551F6A95E2F741505040F9
:10154000F90163E0F695E7956A95E1F7E80FF91F71
:101550008081992721813327322F2227822B932BB9
:1015600002C096958795AA95E2F784239927089556
:101570008130910549F08130910518F0079739F0D5
:1015800009C080E090E0089582E090E0089586E050
:1015900090E0089584E090E00895FB01DC0140FFB5
:1015A00005C002C001900D9201900D924250504032
:1015B000C8F70895629FD001739FF001829FE00DEC
:1015C000F11D649FE00DF11D929FF00D839FF00DC2
:1015D000749FF00D659FF00D9927729FB00DE11D6E
:1015E000F91F639FB00DE11DF91FBD01CF0111244B
:1015F0000895A1E21A2EAA1BBB1BFD010DC0AA1F54
:10160000BB1FEE1FFF1FA217B307E407F50720F06B
:10161000A21BB30BE40BF50B661F771F881F991FE6
:101620001A9469F760957095809590959B01AC012F
:06163000BD01CF01089589
:1016360011E609045509015F0805BE080F080902ED
:10164600000A00000000000000000000000000008A
:101656000000000000000000000000000000000084
:02166600020080
:00000001FF
