:100000000C942A010C9447010C9447010C9447016D
:100010000C9447010C9447010C9447010C94290B54
:100020000C9447010C9447010C9447010C94470130
:100030000C9447010C94CB0A0C94A40A0C9447012D
:100040000C9447010C9447010C9447010C94470110
:100050000C94470100C1814001C0804101C0804132
:1000600000C1814001C0804100C1814000C1814088
:1000700001C0804101C0804100C1814000C1814078
:1000800001C0804100C1814001C0804101C0804168
:1000900000C1814001C0804100C1814000C1814058
:1000A00001C0804100C1814001C0804101C0804148
:1000B00000C1814000C1814001C0804101C0804138
:1000C00000C1814001C0804100C1814000C1814028
:1000D00001C0804101C0804100C1814000C1814018
:1000E00001C0804100C1814001C0804101C0804108
:1000F00000C1814000C1814001C0804101C08041F8
:1001000000C1814001C0804100C1814000C18140E7
:1001100001C0804100C1814001C0804101C08041D7
:1001200000C1814001C0804100C1814000C18140C7
:1001300001C0804101C0804100C1814000C18140B7
:1001400001C0804100C1814001C0804101C08041A7
:1001500000C1814000C0C101C30302C2C60607C777
:1001600005C5C404CC0C0DCD0FCFCE0E0ACACB0BE7
:10017000C90908C8D81819D91BDBDA1A1EDEDF1F17
:10018000DD1D1CDC14D4D515D71716D6D21213D307
:1001900011D1D010F03031F133F3F23236F6F737B7
:1001A000F53534F43CFCFD3DFF3F3EFEFA3A3BFBA7
:1001B00039F9F83828E8E929EB2B2AEAEE2E2FEF57
:1001C0002DEDEC2CE42425E527E7E62622E2E323C7
:1001D000E12120E0A06061A163A3A26266A6A767F7
:1001E000A56564A46CACAD6DAF6F6EAEAA6A6BAB67
:1001F00069A9A86878B8B979BB7B7ABABE7E7FBF97
:100200007DBDBC7CB47475B577B7B67672B2B37386
:10021000B17170B050909151935352929656579736
:10022000559594549C5C5D9D5F9F9E5E5A9A9B5B26
:1002300099595898884849894B8B8A4A4E8E8F4FD6
:100240008D4D4C8C44848545874746868242438346
:100250004181804011241FBECFE5D8E0DEBFCDBF75
:1002600010E0A0E6B0E0E8E3F7E102C005900D92EF
:10027000A439B107D9F712E0A4E9B0E001C01D929A
:10028000A73BB107E1F70E94B0010C949A0B0C94C4
:100290000000DC0123E0683E7207D8F0CA01860F37
:1002A000971F8D5E9340A8F4FB01EE0FFF1FEC53E8
:1002B000F7400AC0908181818C9311969C9311978D
:1002C00012964150504032964115510599F780E001
:1002D000089581E00895DC0134E0603B7307D0F1BC
:1002E000CA01860F971F84519540A0F5605B74404A
:1002F000222341F0213061F5FB01EE0FFF1FE45690
:10030000FF4F23C0FB01EE0FFF1FE456FF4F0AC053
:10031000908181818C9311969C93119712964150F4
:10032000504032964115510599F712C03C9120E09A
:100330003183208311968C91119790E0822B932B1F
:10034000819391931296415050404115510571F798
:1003500080E0089581E0089581E0089581E00895A6
:10036000EF920F931F9380E06AE040E000E016E90F
:1003700020E030E052E0E52E0E94DA0284E361E002
:1003800040E650E023E030E00E94320878940E947A
:100390002C020E944F02809194009091950001964A
:1003A0009093950080939400F4CF482F181614F082
:1003B00082E00895F89461157105F9F0E5E6F0E042
:1003C00080E090E0208131812115310519F0261758
:1003D000370769F4FC01EE0FFF1FE80FF91FEC5916
:1003E000FF4F408372836183409711F51FC00196D0
:1003F00033968031910531F719C0E4E6F0E020E052
:1004000030E08081841759F4F901EE0FFF1FE20FED
:10041000F31FEC59FF4F10821282118209C02F5F27
:100420003F4F33962031310561F702C084E001C0AF
:1004300080E07894089580916300813011F086E027
:100440000895E0917301F0917401309711F480E008
:100450000895099580E0089580916300813011F03E
:1004600086E00895E0916D01F0916E01099510927A
:10047000630080E0089580916300882351F4E09147
:100480006F01F0917001099581E08093630080E035
:100490000895813011F086E0089580E00895DF939B
:1004A000CF930F92CDB7DEB780916300882311F010
:1004B00086E07CC0CE0101960E94470A813009F097
:1004C00074C09981913021F0923009F06EC01BC048
:1004D000E0917101F091720186E691E067E671E0CA
:1004E00043E651E00995882309F05FC090916601C9
:1004F00080916901981719F0992309F056C082E09C
:100500000E94400A52C0A0916701B09168013C91DD
:100510003093650180936201E4E6F0E080E090E0D2
:1005200020812223C1F0231789F4FC01EE0FFF1F65
:10053000E80FF91FEC59FF4F0180F281E02DCD014A
:1005400063E671E009958093620105C001963396D8
:100550008031910529F780916601882331F19091CE
:100560006201992399F0E0916701F091680180910F
:10057000650180688083E0916701F0916801918353
:1005800082E090E090936401809363016091670141
:10059000709168014091630150916401E0916B0199
:1005A000F0916C0180916901099580E00F90CF91E5
:1005B000DF910895EF92FF920F931F93F82E862FED
:1005C0008150873F08F083C060936901FF2029F0C4
:1005D00081E0F81609F07BC036C086E099E0909380
:1005E0006E0180936D0189E798E09093700180938C
:1005F0006F0181E199E090936C0180936B018EE52E
:1006000099E090937201809371011092740110929D
:1006100073018DEB98E09093B2018093B10182E871
:1006200098E09093AE018093AD0182E698E09093BC
:10063000B0018093AF01862F642FA90198010E2D80
:100640000E94930935C080E994E090936E018093F5
:100650006D0187E894E09093700180936F0183E4CB
:1006600094E090936C0180936B018EE693E09093FD
:1006700072018093710110927401109273018CE9E0
:1006800094E09093B2018093B10180EB93E090935A
:10069000AE018093AD0185EA93E09093B001809321
:1006A000AF01862F642FA90198010E2D0E943405F9
:1006B000182F882369F40E943C0A882311F413E060
:1006C00007C0F0926A0181E08093630001C012E0EC
:1006D000812F1F910F91FF90EF900895CF93DF939B
:1006E000DC01EA01F89480917701909178010397F9
:1006F00038F1409177015091780190E020E030E0AE
:1007000007C0F901EA54FE4F8081980F41505040D4
:100710002F5F3F4F41155105A1F7992389F480912F
:10072000B7018C938091770190917801029799831A
:10073000888388EB91E0FB019183808380E001C096
:1007400085E07894DF91CF91089580917601815072
:10075000823010F4109276010E94040B80E008951C
:100760001F93809175018230C9F0833038F488235B
:1007700009F481C0813009F082C007C0833009F4D8
:1007800065C0843009F07BC069C08AE30E949C0A7E
:1007900082E0809375011092790171C080917C0193
:1007A00090917D01892B09F44CC0809179018823B7
:1007B00021F0813009F063C01AC0E0917A01F09114
:1007C0007B01E081E295EF70EA3018F48E2F805DB6
:1007D00008C08E2F8A50863010F080E302C08E2F22
:1007E000895C0E949C0A81E08093790148C0E09175
:1007F0007A01F0917B01E081EF70EA3018F48E2FDE
:10080000805D08C08E2F8A50863010F080E302C0D1
:100810008E2F895C0E949C0A80917A0190917B01C5
:10082000019690937B0180937A01109279018091D7
:100830007C0190917D01019790937D0180937C01D3
:100840001EC08DE00E949C0A83E005C080917E015D
:100850000E949C0A84E08093750111C0109275017A
:1008600083E00E94400A182F81E060E00E94530A52
:100870001092750105C081E060E00E94530A10E00B
:10088000812F1F910895282FF89480917601882355
:1008900011F085E03AC0FB013197F0937B01E093C2
:1008A0007A0181E090E090937D0180937C01208328
:1008B00080917C0190917D01840F951F90937D0123
:1008C00080937C0120917C0130917D0140E004C047
:1008D0008191480F2150304021153105C9F74195CC
:1008E00080917C0190917D01FC01E954FE4F408391
:1008F000019690937D0180937C0181E08093750146
:1009000080E061E00E94530A80E078940895F894B2
:1009100080E060E00E94530A0E94040B78940895DE
:10092000F89481E060E00E94530A10927601789476
:1009300080E00E94400A0895DF93CF930F92CDB7D5
:10094000DEB7CE0101960E949F0A80917601813028
:1009500039F0813008F475C0823009F080C053C08E
:100960000E94F20A99819A3339F410927901109217
:1009700078011092770173C09D3011F482E06DC050
:10098000292F20532A3040F0892F8154863010F0CF
:100990002FEF02C0292F275380917901882321F05E
:1009A000813009F05CC01AC0809177019091780184
:1009B0008F3F910509F068F4E0917701F09178019B
:1009C000E954FE4F2295207F208381E080937901B6
:1009D00046C0109276010E94040B41C0E09177015D
:1009E000F0917801E954FE4F8081282B208380917B
:1009F0007701909178010196909378018093770127
:100A0000109279012CC0998180917E01981741F450
:100A10000E94040B1092760181E00E94400A20C0DF
:100A20009A3361F410927901109278011092770153
:100A300081E0809376010E94F20A11C01092760143
:100A40000EC089818A3359F40E94F20A109278010B
:100A5000109277011092790181E08093760180E015
:100A60000F90CF91DF9108950F93862FF8949AE01D
:100A700090937E01BA01A90127E00E94640A8130A7
:100A800041F480E29EE40E940E0B813011F480E07C
:100A900001C083E078940F910895DC013FEF2FEFC0
:100AA00011C08D91422F482750E0CA018C5A9F4FA8
:100AB000FC01249123274C5A5E4FFA018491615026
:100AC0007040382F6115710561F7932F80E030E099
:100AD000282B392BC9010895CF93DF93FC01EB013B
:100AE000888199810697C0F1A181B281938180E0CC
:100AF0002481422F50E0482B592B3581CA01877041
:100B00009070BA0123E0769567952A95E1F7892BD5
:100B100019F0262F2F5F01C0262FCA010197805B95
:100B20009740D0F42317C1F47A2F60E08B2F90E028
:100B3000682B792B6F5F7F4FCF01069621E00E94D3
:100B4000AC01882319F00E942D0A07C085E090E0CF
:100B50009983888380E001C083E0DF91CF9108957D
:100B6000DF93CF9300D0CDB7DEB7DC01FB018081EE
:100B70009181059761F511962C91119712963C91F0
:100B8000129714968C911497882309F513969C91CB
:100B9000892F81508E3FD8F01A829F3F19F481E04F
:100BA000898301C01982722F60E0832F90E0682B47
:100BB000792B6F5F7F4FCE01019641E050E021E03D
:100BC0000E94AC01882321F00E942D0A01C083E01D
:100BD0000F900F90CF91DF9108950F931F93CF93B4
:100BE000DF93FC01EB0188819981059709F047C0EB
:100BF0000181DF0112963281938180E02481422FAE
:100C000050E0482B592BCA0101978F5C9740B8F5EB
:100C10001982188281E08083888199810196998365
:100C20008883CA0187709070BA0113E07695679542
:100C30001A95E1F7892B19F0162F1F5F01C0162FA7
:100C4000118388819981019699838883702F60E050
:100C5000832F90E0682B792B6F5F7F4FCD0120E0D1
:100C60000E94AC01882319F00E942D0A09C08881D6
:100C70009981810F911D9983888380E001C083E071
:100C8000DF91CF911F910F9108950F931F93CF93F1
:100C9000DF93FC01EB0188819981059709F046C03B
:100CA0000181DF0112963281938180E02481422FFD
:100CB00050E0482B592BCA0101978F5C9740B0F543
:100CC0001982188282E080838881998101969983B4
:100CD0008883CA0187709070BA0123E07695679582
:100CE0002A95E1F7892B19F0162F1F5F01C0162FE7
:100CF000118388819981019699838883702F60E0A0
:100D0000832F90E0682B792B6F5F7F4FCD010E947E
:100D1000AE01882319F00E942D0A09C088819981AB
:100D2000810F911D9983888380E001C083E0DF916A
:100D3000CF911F910F9108958F929F92AF92BF9282
:100D4000CF92DF92EF92FF920F931F93CF93DF9397
:100D5000EC018B01FB01808191810A9708F467C047
:100D6000898022E0A22EB12CAC0EBD1E9A809B8100
:100D700080E02C81E22EFF24E82AF92AED81FE8111
:100D80006F8128857985C70101978D37910508F016
:100D900053C0962F80E0422F50E0482B592B41152D
:100DA000510509F449C04A37510508F045C09A0178
:100DB000220F331F872F90E028173907E9F57E2F80
:100DC00060E08F2F90E0682B792B6F5F7F4FCE0113
:100DD0000A9621E00E946B01882359F5F8011182DF
:100DE000108287E18883808191810196918380833D
:100DF0006701CC0CDD1CC9828081918101969183B1
:100E00008083782D60E0892D90E0682B792B6F5FCF
:100E10007F4FC501A70120E00E946B01882349F4A0
:100E2000F801808191818C0D9D1D9183808380E0EC
:100E300004C00E942D0A01C083E0DF91CF911F9171
:100E40000F91FF90EF90DF90CF90BF90AF909F9069
:100E50008F9008950F931F93CF93DF93FC01EB01C5
:100E6000888199810597C1F5B1819F012E5F3F4F20
:100E7000A2818481482F50E0CA0101978D379105E6
:100E800058F51982188283E08083888199810196C0
:100E9000998388838A01000F111F018388819981BA
:100EA0000196998388837B2F60E08A2F90E0682BDE
:100EB000792B6F5F7F4FC90120E00E946B0188236F
:100EC00019F00E942D0A09C088819981800F911F15
:100ED0009983888380E001C083E0DF91CF911F91E7
:100EE0000F910895CF93DF93FC01EB0188819981E5
:100EF000069760F13181A281938180E02481422FA5
:100F000050E0482B592B2581CA010197883791055C
:100F1000E8F4CA01880F991F2817C1F4732F60E005
:100F20008A2F90E0682B792B6F5F7F4FCF01069659
:100F300021E00E946B01882319F00E942D0A07C04E
:100F400085E090E09983888380E001C083E0DF91B1
:100F5000CF910895DC01FB0180819181059711F00B
:100F600083E0089511967C91119760E012968C9120
:100F7000129790E0682B792B6F5F7F4FCD0103961E
:100F800041E050E021E00E946B01882311F00E94B3
:100F90002D0A0895FF920F931F93CF93DF93FC01C7
:100FA000EB01888199810597D1F5F180DF011296D7
:100FB0003281938180E02481422F50E0482B592BCD
:100FC000CA0101978C37910550F51982188284E087
:100FD0008083888199810196998388838A01000F93
:100FE000111F0183888199810196998388837F2DC0
:100FF00060E0832F90E0682B792B6F5F7F4FCD01EE
:101000000E944901882319F00E942D0A09C0888195
:101010009981800F911F9983888380E001C083E0CC
:10102000DF91CF911F910F91FF9008950F931F9320
:101030008B019C012F5F3F4FEFE7F1E040919F0153
:101040005091A001C901BF010E94910B80919F01A5
:101050009091A0010196F8019183808380E01F9117
:101060000F910895CF93DF93E82FE901C90102960C
:10107000809710F084E023C0E0937F01662311F491
:1010800080E001C08FEF8093800182E090E0909338
:10109000A00180939F01209789F021E831E0C901E8
:1010A000BA01AE010E94910B80919F019091A00125
:1010B0008C0F9D1F9093A00180939F0180E0DF9192
:1010C000CF9108951F938091A201882321F082304F
:1010D00021F010E006C080E001C081E00E94400ADB
:1010E000182F0E94040B81E08093A201812F1F9191
:1010F0000895F89480E060E00E94530A0E94040B77
:10110000789408951F938091A101882319F081306C
:1011100029F406C081E060E00E94530A10E02AC072
:101120008091A5019091A601892BD1F0E091A301B6
:10113000F091A40180810E949C0A8091A30190916A
:10114000A40101969093A4018093A3018091A5012D
:101150009091A60101979093A6018093A501DECFFF
:1011600083E00E94400A182F81E060E00E94530A49
:101170001092A101812F1F910895DF93CF930F92B9
:10118000CDB7DEB7CE0101960E949F0A8091A201E1
:10119000813039F0813098F18230B9F0833089F5AF
:1011A0002EC01092A8011092A7018091A7019091E2
:1011B000A8012981FC01E954FE4F208301969093F8
:1011C000A8018093A70182E018C08091A7019091A7
:1011D000A8018F3F910509F078F48091A7019091C3
:1011E000A8012981FC01E954FE4F208301969093C8
:1011F000A8018093A70103C083E08093A2010E940D
:10120000F20A80E00F90CF91DF910895F894109248
:10121000A20181E060E00E94530A0E94F20A7894E1
:1012200008951F93282FF8941091A201113011F006
:1012300085E041C0FB013197F093A401E093A30145
:1012400081E090E09093A6018093A5012083809196
:10125000A5019091A601840F951F9093A6018093FC
:10126000A5016091A5017091A601CF010E944D05D5
:101270002091A5013091A601F901E954FE4F808328
:101280002F5F3F4F3093A6012093A5012091A50128
:101290003091A601F901E954FE4F90832F5F3F4F33
:1012A0003093A6012093A5011093A10180E061E095
:1012B0000E94530A80E078941F910895EF92FF9264
:1012C0000F931F93CF93DF93EC017B018A01F89476
:1012D0008091A7019091A8010497E0F06091A70187
:1012E0007091A80187EB91E00E944D05892B91F444
:1012F0008091B70188838091A7019091A8010397FD
:10130000F8019183808388EB91E0F70191838083DA
:1013100080E001C085E07894DF91CF911F910F911B
:10132000FF90EF900895CF92DF92EF92FF920F938C
:10133000862F69017A01F894BA01A90128E00E9478
:10134000640A813009F581E0C8168BE4D80680E094
:10135000E80680E0F80628F083E290E0A0E0B0E044
:101360000DC0CC0CDD1CEE1CFF1C60EA7FE787E1A2
:1013700090E0A70196010E946F0BC9010E940E0B1D
:10138000813011F480E001C083E078940F91FF90E8
:10139000EF90DF90CF9008950F931F93CF93DF933B
:1013A00030E0DB0153E0B695A7955A95E1F76770F9
:1013B0007070E1E0F0E002C0EE0FFF1F4A95E2F727
:1013C00031978C010A0F1B1FE801488150E01196EC
:1013D000A80FB91F9C9180E0482B592B062E02C004
:1013E000EE0FFF1F0A94E2F7E095F0954E235F237E
:1013F00002C0220F331F6A95E2F7422B532B48831A
:101400005C93DF91CF911F910F910895FB01B3E0A1
:10141000F695E795BA95E1F7DC01AE0FBF1F2C9169
:1014200030E011969C9180E0822B932BA3E0EE0F8D
:10143000FF1FAA95E1F76E1B7F0B02C0969587955B
:101440006A95E2F721E030E002C0220F331F4A958F
:10145000E2F72150304082230895813029F0813015
:1014600028F0873039F404C082E0089580E00895C0
:1014700086E0089584E008951092AA0181E008951D
:1014800091E09093AA018093A90181E00895FC0165
:101490008091AA01882331F08091A9018083109264
:1014A000AA0181E00895539A882319F08AB18069CE
:1014B00002C08AB18F768AB9662321F08AB1886228
:1014C0008AB9089555980895CF92DF92EF92FF92CE
:1014D0000F931F936A017B01122F84E0CC0CDD1C5B
:1014E000EE1CFF1C8A95D1F760E074E284EF90E077
:1014F000A70196010E946F0B215029B9013031F0EC
:10150000023011F480E203C080E001C080E31730B4
:1015100021F0183019F4866001C08460806880BDB5
:1015200080E060E00E94530A81E01F910F91FF90DC
:10153000EF90DF90CF9008958CB981E00895FC0181
:101540008CB1808381E008951F920F920FB60F92A5
:1015500011242F933F934F935F936F937F938F93B8
:101560009F93AF93BF93EF93FF93E091AD01F09101
:10157000AE010995FF91EF91BF91AF919F918F912E
:101580007F916F915F914F913F912F910F900FBE7F
:101590000F901F9018951F920F920FB60F92112463
:1015A0002F933F934F935F936F937F938F939F936B
:1015B000AF93BF93EF93FF93E091B101F091B2012C
:1015C0000995FF91EF91BF91AF919F918F917F917D
:1015D0006F915F914F913F912F910F900FBE0F90A0
:1015E0001F9018951DBC1CBC2091AB013091AC0123
:1015F0002115310529F089B7806189BF3BBD2ABD1E
:101600008EB585608EBD08958EB58A7F8EBD89B7F3
:101610008F7E89BF88B7806188BF0895A0E0B0E061
:10162000BC01CD0129E03DE340E050E00E94500BB9
:1016300020E23EE440E050E00E946F0B3093AC01AA
:101640002093AB011FBC1EBC1FBC0E94040B81E099
:1016500008951F920F920FB60F9211242F933F936C
:101660004F935F936F937F938F939F93AF93BF93AA
:10167000EF93FF93E091AF01F091B0010995FF91D5
:10168000EF91BF91AF919F918F917F916F915F91FA
:101690004F913F912F910F900FBE0F901F90189573
:1016A000629FD001739FF001829FE00DF11D649F46
:1016B000E00DF11D929FF00D839FF00D749FF00DD2
:1016C000659FF00D9927729FB00DE11DF91F639F73
:1016D000B00DE11DF91FBD01CF0111240895A1E254
:1016E0001A2EAA1BBB1BFD010DC0AA1FBB1FEE1F9C
:1016F000FF1FA217B307E407F50720F0A21BB30BE7
:10170000E40BF50B661F771F881F991F1A9469F762
:1017100060957095809590959B01AC01BD01CF01BE
:101720000895FB01DC0102C001900D924150504030
:08173000D8F70895F894FFCFEB
:10173800AABBCC0211160804CA07032A07107207AD
:1017480006AA07179C0601ED0505B0050F6C0502F2
:101758004506000000000000000000000000000036
:04176800000000007D
:00000001FF
