:1000000012C12CC12BC12AC129C128C195C226C148
:1000100025C124C123C12CC204C251C21FC11EC1AB
:100020001DC11CC11BC100C1814001C0804101C074
:10003000804100C1814001C0804100C1814000C1B8
:10004000814001C0804101C0804100C1814000C1A8
:10005000814001C0804100C1814001C0804101C098
:10006000804100C1814001C0804100C1814000C188
:10007000814001C0804100C1814001C0804101C078
:10008000804100C1814000C1814001C0804101C068
:10009000804100C1814001C0804100C1814000C158
:1000A000814001C0804101C0804100C1814000C148
:1000B000814001C0804100C1814001C0804101C038
:1000C000804100C1814000C1814001C0804101C028
:1000D000804100C1814001C0804100C1814000C118
:1000E000814001C0804100C1814001C0804101C008
:1000F000804100C1814001C0804100C1814000C1F8
:10010000814001C0804101C0804100C1814000C1E7
:10011000814001C0804100C1814001C0804101C0D7
:10012000804100C1814000C0C101C30302C2C606B4
:1001300007C705C5C404CC0C0DCD0FCFCE0E0ACA1F
:10014000CB0BC90908C8D81819D91BDBDA1A1EDE6F
:10015000DF1FDD1D1CDC14D4D515D71716D6D2121F
:1001600013D311D1D010F03031F133F3F23236F62F
:10017000F737F53534F43CFCFD3DFF3F3EFEFA3ADF
:100180003BFB39F9F83828E8E929EB2B2AEAEE2E6F
:100190002FEF2DEDEC2CE42425E527E7E62622E2DF
:1001A000E323E12120E0A06061A163A3A26266A62F
:1001B000A767A56564A46CACAD6DAF6F6EAEAA6A9F
:1001C0006BAB69A9A86878B8B979BB7B7ABABE7EEF
:1001D0007FBF7DBDBC7CB47475B577B7B67672B29F
:1001E000B373B17170B0509091519353529296562F
:1001F0005797559594549C5C5D9D5F9F9E5E5A9A5F
:100200009B5B99595898884849894B8B8A4A4E8EEE
:100210008F4F8D4D4C8C448485458747468682425E
:1002200043834181804011241FBECFE5D4E0DEBF6F
:10023000CDBF10E0A0E6B0E0E4E1F2E102C005903D
:100240000D92A03AB107D9F711E0A0EAB0E001C0E1
:100250001D92A33FB107E1F702D0DAC7D1CEEF92EA
:100260000F931F93DF93CF9300D00F92CDB7DEB7DC
:10027000DE011196E0E6F0E083E001900D928150FE
:10028000E1F76AE040E000E016E920E030E0EE242B
:100290007AD184E361E0AE014F5F5F4F23E030E04D
:1002A00023D778941CD23DD28091A0009091A100D8
:1002B00001969093A1008093A000F5CFFC016130DE
:1002C000710549F44130510541F410828091A0003C
:1002D000818380E0089581E0089581E00895FC0124
:1002E0006130710559F44130510541F4222341F444
:1002F000108286B38095818380E0089581E008951F
:1003000080E0089581E0089581E00895DC014FEFD9
:100310005FEF0FC02D91842F822790E0FC01EA5DF2
:10032000FF4F449145278A5D9E4FFC0154916150D7
:1003300070406115710571F7352F20E0E42FF0E072
:10034000E22BF32BCF0108951092A80081E00895CD
:1003500091E09093A8008093A90081E008952091F6
:10036000A800222341F02091A900FC0120831092D3
:10037000A80081E0089580E008959AB198649AB940
:10038000882319F08AB1806902C08AB18F768AB950
:10039000662329F08AB188628AB9929A089555989D
:1003A0000895CF92DF92EF92FF920F931F936A010D
:1003B0007B01122F84E0CC0CDD1CEE1CFF1C8A9507
:1003C000D1F760E070E880E790E0A7019601F5D6EC
:1003D000215029B9033030F4E02FF0E0ED59FF4F00
:1003E000808101C080E0173021F0183019F4866058
:1003F00001C08460806880BD80E060E0BEDF8A9AD2
:10040000929881E01F910F91FF90EF90DF90CF9035
:1004100008958CB981E008952CB1FC01208381E01E
:1004200008951F920F920FB60F9211242F933F93AE
:100430004F935F936F937F938F939F93AF93BF93EC
:10044000EF93FF93E091E900F091EA000995FF91A5
:10045000EF91BF91AF919F918F917F916F915F913C
:100460004F913F912F910F900FBE0F901F901895B5
:100470001F920F920FB60F9211242F933F934F9319
:100480005F936F937F938F939F93AF93BF93EF93FC
:10049000FF93E091ED00F091EE000995FF91EF914F
:1004A000BF91AF919F918F917F916F915F914F918C
:1004B0003F912F910F900FBE0F901F9018951F9294
:1004C0000F920FB60F92112492980F900FBE0F90BB
:1004D0001F9018951DBC1CBC8091AA009091AB0088
:1004E000009729F029B7206129BF9BBD8ABD8EB531
:1004F00085608EBD08958EB58A7F8EBD89B78F7E4B
:1005000089BF88B7806188BF0895BC0180E090E012
:1005100020E23CE140E050E031D620E23EE440E021
:1005200050E04BD63093AB002093AA001FBC1EBCFA
:100530001FBCE1DF81E008951F920F920FB60F926A
:1005400011242F933F934F935F936F937F938F93D8
:100550009F93AF93BF93EF93FF93E091EB00F091E4
:10056000EC000995FF91EF91BF91AF919F918F9111
:100570007F916F915F914F913F912F910F900FBE9F
:100580000F901F901895EF920F931F93982F862F1F
:10059000642FA90198010E2D782F7150773F08F034
:1005A0003FC08093AE009923D9F5E3E5F4E0F093E2
:1005B000BB00E093BA00ECE5F4E0F093B900E093FF
:1005C000B800E8E9F4E0F093B000E093AF00E3E6B0
:1005D000F4E0F093AD00E093AC001092BD001092F7
:1005E000BC00E3EEF4E0F093EE00E093ED00EAE20D
:1005F000F5E0F093EA00E093E900E2E6F5E0F0933D
:10060000EC00E093EB0019D1082F882361F49CDE05
:10061000882341F01092BE0081E08093660003C001
:1006200002E001C003E0802F1F910F91EF90089529
:1006300018160CF041C0F8946115710511F1E8E647
:10064000F0E020E030E0408151814115510519F082
:100650004617570771F4F901EE0FFF1FE20FF31F62
:10066000E959FF4F8083728361832031310509F599
:1006700006C02F5F3F4F33962031310521F784E0CC
:1006800019C0E7E6F0E020E030E09081981759F4D7
:10069000F901EE0FFF1FE20FF31FE959FF4F108220
:1006A0001282118206C02F5F3F4F339620313105F1
:1006B00061F780E07894089582E008958091660063
:1006C000813049F4E091BC00F091BD00309729F0F1
:1006D000099580E0089586E0089580E0089580916E
:1006E0006600813049F4E091BA00F091BB000995B1
:1006F0001092660080E0089586E00895809166007B
:10070000882349F4E091B800F091B900099581E09F
:100710008093660002C0813011F480E0089586E085
:100720000895DF93CF930F92CDB7DEB78091660027
:10073000882309F07BC0CE01019611DE813009F0DB
:1007400077C09981913021F0923009F071C01AC0C0
:10075000E091AC00F091AD0085EB90E066EB70E0CD
:1007600042EB50E00995882309F062C08091B50002
:100770009091AE00891719F0882309F059C082E0E2
:10078000E7DD56C0A091B600B091B7009C91909360
:10079000B4008093B100E7E6F0E020E030E0808133
:1007A0008823C9F0891789F4F901EE0FFF1FE20FC2
:1007B000F31FE959FF4F0180F281E02DCD0162EB7B
:1007C00070E009958093B10006C02F5F3F4F3396CC
:1007D0002031310521F78091B500882349F19091AE
:1007E000B100992399F0E091B600F091B7008091A3
:1007F000B40080688083E091B600F091B7009183E7
:1008000082E090E09093B3008093B2006091B600D4
:100810007091B7004091B2005091B300E091AF00E9
:10082000F091B0008091AE00099502C086E001C051
:1008300080E00F90CF91DF910895CF92DF92EF92F9
:10084000FF920F93862F69017A01F894BA01A901EA
:1008500028E0A7DD8130F9F481E0C8168BE4D806E2
:1008600080E0E80680E0F80660F4A7019601220F18
:10087000331F441F551F60EA7FE787E190E09DD456
:1008800004C023E230E040E050E0C9013EDE8130A8
:1008900011F480E001C083E078940F91FF90EF9015
:1008A000DF90CF900895F8941092BF0081E060E04F
:1008B00064DD10DE78940895F89480E060E05DDDFA
:1008C0001ADE78940895EF92FF920F931F93CF93BF
:1008D000DF938C017B01EA01F8948091C50090912F
:1008E000C60084309105D8F06091C5007091C600B3
:1008F00083EF90E00BDD009791F48091F300F80115
:1009000080838091C5009091C60003979983888366
:1009100084EF90E0F7019183808380E001C085E05F
:100920007894DF91CF911F910F91FF90EF900895F0
:100930001F93F8941091BF00113009F040C0FB01E3
:100940003197F093C400E093C30021E030E030938E
:10095000C2002093C10080838091C1009091C200A9
:10096000840F951F9093C2008093C1006091C100D5
:100970007091C200CF01CADC492F2091C100309193
:10098000C200F901ED50FF4F80832F5F3F4F30933E
:10099000C2002093C1008091C1009091C200FC016F
:1009A000ED50FF4F408301969093C2008093C100A9
:1009B0001093C00080E061E0E0DC80E001C085E0F1
:1009C00078941F910895DF93CF930F92CDB7DEB740
:1009D000CE01019621DD8091BF00813039F0813058
:1009E00098F18230B9F0833081F52EC01092C600A4
:1009F0001092C5008091C5009091C6002981FC012C
:100A0000ED50FF4F208301969093C6008093C50060
:100A100082E018C08091C5009091C6008F3F91057B
:100A200009F078F48091C5009091C6002981FC01FD
:100A3000ED50FF4F208301969093C6008093C50030
:100A400003C083E08093BF0045DD80E00F90CF912D
:100A5000DF9108951F938091C000882319F08130A1
:100A600069F504C081E060E088DC28C08091C100A5
:100A70009091C2000097C9F0E091C300F091C400CA
:100A80008081C7DC8091C3009091C400019690934F
:100A9000C4008093C3008091C1009091C20001976F
:100AA0009093C2008093C10009C083E051DC182FED
:100AB00081E060E062DC1092C00001C010E0812F94
:100AC0001F910895DF93CF930F92CDB7DEB780913A
:100AD000BF00882319F0823031F402C080E001C0E9
:100AE00081E036DC01C080E0898305DD91E09093F0
:100AF000BF0089810F90CF91DF9108950F931F93CD
:100B0000CF93DF93FC01EB018881998185309105BA
:100B1000D9F5CF01019641816281338120E00481C2
:100B200010E0022B132B9801215030402C37310557
:100B300058F51982188224E02083288139812F5F9B
:100B40003F4F39832883202F220F21832881398129
:100B50002F5F3F4F39832883342F20E070E0622BD2
:100B6000732B6F5F7F4F0196A801A8DB882311F0DC
:100B70008DD10BC0000F111F88819981800F911FAB
:100B80009983888380E001C083E0DF91CF911F913A
:100B90000F910895FB01208131812530310591F4B9
:100BA000FC01318120E0628170E0622B732B6F5F6A
:100BB0007F4F039641E050E021E091DB882321F054
:100BC00065D1089583E0089580E00895CF93DF9381
:100BD000FC01EB01888199818630910538F12181F2
:100BE0006281938180E0448150E0482B592B35810C
:100BF000CA01019788379105C8F4842F880F3817E8
:100C0000A9F4922F80E070E0682B792B6F5F7F4F03
:100C1000CF01069621E063DB882311F037D107C0AE
:100C200085E090E09983888380E001C083E0DF91D4
:100C3000CF9108950F931F93CF93DF93FC01EB01A6
:100C40008881998185309105B9F5CF01019651814F
:100C500062814481042F10E09801215030402D37EB
:100C6000310550F51982188223E0208328813981CB
:100C70002F5F3F4F39832883440F41832881398177
:100C80002F5F3F4F39832883352F20E070E0622BA0
:100C9000732B6F5F7F4F0196A80121DB882311F032
:100CA000F5D00BC0000F111F88819981800F911F13
:100CB0009983888380E001C083E0DF91CF911F9109
:100CC0000F910895AF92BF92CF92DF92EF92FF9271
:100CD0000F931F93CF93DF93EC018B01FB01808176
:100CE00091818A30910508F466C06E010894C11C98
:100CF000D11CB980AA809B8180E0EC80FF24E82A87
:100D0000F92A7D816E819F814885898597012150CF
:100D100030402D37310508F050C0392F20E050E029
:100D2000422B532B4115510509F447C04A37510551
:100D300008F043C09A01220F331F90E028173907AB
:100D4000E1F5972F80E070E0682B792B6F5F7F4F84
:100D5000CE010A9621E0C3DA882359F5F801118201
:100D6000108287E1888380819181019691838083BD
:100D70008E2D880F89838081918101969183808354
:100D80009B2D80E06A2D70E0682B792B6F5F7F4F81
:100D9000C6010196A70120E0A2DA882351F4EE0CE7
:100DA000FF1CF801808191818E0D9F1D91838083AE
:100DB00002C06CD003C080E001C083E0DF91CF911E
:100DC0001F910F91FF90EF90DF90CF90BF90AF9069
:100DD0000895CF93DF9330E0EB0153E0D695C795AC
:100DE0005A95E1F767707070E1E0F0E002C0EE0F35
:100DF000FF1F4A95E2F73197DC01AC0FBD1F4C9104
:100E000050E02196C80FD91F988180E0482B592BBC
:100E1000062E02C0EE0FFF1F0A94E2F7E095F09550
:100E20004E235F2302C0220F331F6A95E2F7422B45
:100E3000532B4C935883DF91CF9108959B01F3E09E
:100E400036952795FA95E1F7DC01A20FB31F8C9137
:100E500090E01196FC911197E0E08E2B9F2BE3E040
:100E6000220F331FEA95E1F7621B730B02C09695C0
:100E700087956A95E2F721E030E002C0220F331F28
:100E80004A95E2F72150304082230895883030F4AB
:100E9000E82FF0E0E956FF4F8081089584E008953F
:100EA0001F93CF93DF93FC01EB01888199818530FB
:100EB000910509F046C0CF010196718162813381AD
:100EC00020E0448150E0422B532B9A0121503040C6
:100ED000A7E02F3C3A07A8F51982188221E0208369
:100EE000288139812F5F3F4F39832883DA01A7702A
:100EF000B0709A0113E0369527951A95E1F710978F
:100F000019F0122F1F5F01C0122F11832881398120
:100F10002F5F3F4F39832883372F20E070E0622B0B
:100F2000732B6F5F7F4F0196EDD9882311F0AEDFF1
:100F300009C088819981810F911D9983888380E000
:100F400001C083E0DF91CF911F910895DF93CF938C
:100F500000D0CDB7DEB7FC01DB018D919C911197DC
:100F60008530910511F52181628184818823E9F41E
:100F70008381982F91509E3FC0F01A828F3F19F4C1
:100F800081E0898301C01982922F80E070E0682B94
:100F9000792B6F5F7F4FCE01019641E050E021E059
:100FA000B1D9882321F072DF03C083E001C080E063
:100FB0000F900F90CF91DF910895CF93DF93FC01B5
:100FC000EB018881998186309105A0F17181628160
:100FD000938180E0448150E0482B592BA5819A01F0
:100FE00027703070CA01B3E096958795BA95E1F7FE
:100FF0002115310509F08F5F9A012150304097E0AB
:10100000203B3907B8F48A17A9F4972F80E070E0E5
:10101000682B792B6F5F7F4FCF01069621E072D945
:10102000882311F033DF07C085E090E0998388833F
:1010300080E001C083E0DF91CF9108951F93CF93AB
:10104000DF93FC01EB01888199818530910509F0DE
:1010500046C0CF01019671816281338120E04481D5
:1010600050E0422B532B9A0121503040A7E02F3CF7
:101070003A07A8F51982188222E020832881398155
:101080002F5F3F4F39832883DA01A770B0709A0130
:1010900013E0369527951A95E1F7109719F0122F5E
:1010A0001F5F01C0122F1183288139812F5F3F4FAD
:1010B00039832883372F20E070E0622B732B6F5F1A
:1010C0007F4F019621D9882311F0E0DE09C0888185
:1010D0009981810F911D9983888380E001C083E00D
:1010E000DF91CF911F910895CF93DF93E90122966D
:1010F000C032D105E8F48093C900662311F08FEF68
:1011000001C080E08093CA0082E090E09093C80024
:101110008093C7002115310569F0EBECF0E0CF01B9
:10112000BA01A9016CD0D093C800C093C70002C017
:1011300084E001C080E0DF91CF910895EF92FF92AB
:101140000F931F93CF93DF938B01C091C700D09172
:10115000C800AC014F5F5F4F29EC30E0CA01B90114
:10116000AE014DD02196F801D183C08380E0DF919C
:10117000CF911F910F91FF90EF900895629FD00142
:10118000739FF001829FE00DF11D649FE00DF11D42
:10119000929FF00D839FF00D749FF00D659FF00DF1
:1011A0009927729FB00DE11DF91F639FB00DE11DDE
:1011B000F91FBD01CF0111240895A1E21A2EAA1B27
:1011C000BB1BFD010DC0AA1FBB1FEE1FFF1FA217F7
:1011D000B307E407F50720F0A21BB30BE40BF50BF4
:1011E000661F771F881F991F1A9469F7609570957D
:1011F000809590959B01AC01BD01CF010895FB0145
:10120000DC0102C001900D9241505040D8F7089582
:04121000F894FFCF80
:10121400AABBCC00302002119E08047E05031A06E6
:1012240010E60506CA0517620601500705A6070F52
:10123400DD07021E0800000000000000000000009E
:10124400000000000000000002040404040406007E
:00000001FF
