:100000000C942A010C9447010C9447010C9447016D
:100010000C9447010C9447010C94C4020C944701C2
:100020000C9447010C9447010C9447010C945D0219
:100030000C9436020C9484020C9447010C944701F2
:100040000C9447010C9447010C9447010C94470110
:100050000C94470100C1814001C0804101C0804132
:1000600000C1814001C0804100C1814000C1814088
:1000700001C0804101C0804100C1814000C1814078
:1000800001C0804100C1814001C0804101C0804168
:1000900000C1814001C0804100C1814000C1814058
:1000A00001C0804100C1814001C0804101C0804148
:1000B00000C1814000C1814001C0804101C0804138
:1000C00000C1814001C0804100C1814000C1814028
:1000D00001C0804101C0804100C1814000C1814018
:1000E00001C0804100C1814001C0804101C0804108
:1000F00000C1814000C1814001C0804101C08041F8
:1001000000C1814001C0804100C1814000C18140E7
:1001100001C0804100C1814001C0804101C08041D7
:1001200000C1814001C0804100C1814000C18140C7
:1001300001C0804101C0804100C1814000C18140B7
:1001400001C0804100C1814001C0804101C08041A7
:1001500000C1814000C0C101C30302C2C60607C777
:1001600005C5C404CC0C0DCD0FCFCE0E0ACACB0BE7
:10017000C90908C8D81819D91BDBDA1A1EDEDF1F17
:10018000DD1D1CDC14D4D515D71716D6D21213D307
:1001900011D1D010F03031F133F3F23236F6F737B7
:1001A000F53534F43CFCFD3DFF3F3EFEFA3A3BFBA7
:1001B00039F9F83828E8E929EB2B2AEAEE2E2FEF57
:1001C0002DEDEC2CE42425E527E7E62622E2E323C7
:1001D000E12120E0A06061A163A3A26266A6A767F7
:1001E000A56564A46CACAD6DAF6F6EAEAA6A6BAB67
:1001F00069A9A86878B8B979BB7B7ABABE7E7FBF97
:100200007DBDBC7CB47475B577B7B67672B2B37386
:10021000B17170B050909151935352929656579736
:10022000559594549C5C5D9D5F9F9E5E5A9A9B5B26
:1002300099595898884849894B8B8A4A4E8E8F4FD6
:100240008D4D4C8C44848545874746868242438346
:100250004181804011241FBECFE5D4E0DEBFCDBF79
:1002600010E0A0E6B0E0EEE1FFE002C005900D92E4
:10027000AC39B107D9F712E0ACE9B0E001C01D928A
:10028000A534B107E1F70E9449010C948D070C9445
:100290000000EF920F931F938AB38E608ABB80E0B9
:1002A0006AE040E000E016E920E030E0EE240E9441
:1002B000EB0278940E9499030E94BB0380919C00FA
:1002C0008F5F80939C00F8CF222319F56A30710567
:1002D000F1F542305105D9F520919E00322F3F5F54
:1002E00030939E002F3F29F420919F002F5F209391
:1002F0009F0040E009C0F901E456FF4F5081280FEC
:10030000391FF90150834F5F242F30E0443099F7B3
:100310001AC02130C1F464317105C9F44F3351055D
:10032000A0F4440F551F60E009C0FC01E20FF31F69
:10033000708120563F4FF90170836F5F262F30E0A8
:100340002417350790F380E0089584E0089584E051
:100350000895DC014FEF5FEF0FC02D91842F8227AE
:1003600090E0FC01EC5AFF4F449145278C5A9E4F78
:10037000FC015491615070406115710571F7352F82
:1003800020E0E42FF0E0E22BF32BCF010895109250
:100390001C0181E0089591E090931C0180931D0160
:1003A00081E0089520911C01222341F020911D013C
:1003B000FC01208310921C0181E0089580E00895E3
:1003C0009AB198649AB9882319F08AB1806902C0F9
:1003D0008AB18F768AB9662329F08AB188628AB990
:1003E000929A089555980895CF92DF92EF92FF92D6
:1003F0000F931F936A017B01122F84E0CC0CDD1C4C
:10040000EE1CFF1C8A95D1F760E070E880E790E071
:10041000A70196010E946B07215029B9033030F4DF
:10042000E02FF0E0E05AFF4F808101C080E01730FC
:1004300021F0183019F4866001C08460806880BDA6
:1004400080E060E00E94E0018A9A929881E01F912A
:100450000F91FF90EF90DF90CF9008958CB981E0DD
:1004600008952CB1FC01208381E008951F920F9222
:100470000FB60F9211242F933F934F935F936F9377
:100480007F938F939F93AF93BF93EF93FF93E091ED
:100490003B01F0913C010995FF91EF91BF91AF9124
:1004A0009F918F917F916F915F914F913F912F918C
:1004B0000F900FBE0F901F9018951F920F920FB6BE
:1004C0000F9211242F933F934F935F936F937F93DA
:1004D0008F939F93AF93BF93EF93FF93E0913F016F
:1004E000F09140010995FF91EF91BF91AF919F91DC
:1004F0008F917F916F915F914F913F912F910F90CD
:100500000FBE0F901F9018951F920F920FB60F926B
:10051000112492980F900FBE0F901F9018951DBC3C
:100520001CBC80911E0190911F01009729F029B7F2
:10053000206129BF9BBD8ABD8EB585608EBD0895A3
:100540008EB58A7F8EBD89B78F7E89BF88B780615F
:1005500088BF0895BC0180E090E020E23CE140E0EB
:1005600050E00E944C0720E23EE440E050E00E9450
:100570006B0730931F0120931E011FBC1EBC1FBCC4
:100580000E94A00281E008951F920F920FB60F9271
:1005900011242F933F934F935F936F937F938F9388
:1005A0009F93AF93BF93EF93FF93E0913D01F09141
:1005B0003E010995FF91EF91BF91AF919F918F916E
:1005C0007F916F915F914F913F912F910F900FBE4F
:1005D0000F901F901895EF920F931F93982F862FCF
:1005E000642FA90198010E2D782F7150773F08F0E4
:1005F00041C0809322019923E9F5E2E8F4E0F09309
:100600002F01E0932E01EDE8F4E0F0932D01E0934B
:100610002C01ECECF4E0F0932401E0932301E6E9F3
:10062000F4E0F0932101E093200110923101109247
:100630003001E9E1F5E0F0934001E0933F01E2E6AB
:10064000F5E0F0933C01E0933B01EEE9F5E0F09337
:100650003E01E0933D010E944904082F882369F47C
:100660000E94C701882341F01092320181E08093FB
:10067000630003C002E001C003E0802F1F910F91CF
:10068000EF90089518160CF041C0F89461157105AB
:1006900011F1E5E6F0E020E030E0408151814115C4
:1006A000510519F04617570771F4F901EE0FFF1FB6
:1006B000E20FF31FEC59FF4F808372836183203177
:1006C000310509F506C02F5F3F4F339620313105C4
:1006D00021F784E019C0E4E6F0E020E030E090810A
:1006E000981759F4F901EE0FFF1FE20FF31FEC59B1
:1006F000FF4F10821282118206C02F5F3F4F339648
:100700002031310561F780E07894089582E0089502
:1007100080916300813049F4E0913001F091310122
:10072000309729F0099580E0089586E0089580E0EB
:10073000089580916300813049F4E0912E01F09199
:100740002F0109951092630080E0089586E00895D6
:1007500080916300882349F4E0912C01F0912D01F0
:10076000099581E08093630002C0813011F480E03C
:10077000089586E00895DF93CF930F92CDB7DEB74B
:1007800080916300882309F07DC0CE0101960E940C
:10079000D201813009F078C09981913021F09230F6
:1007A00009F072C01BC0E0912001F091210189E2A3
:1007B00091E06AE271E046E251E00995882309F090
:1007C00063C08091290190912201891719F0882333
:1007D00009F05AC082E00E94CB0156C0A0912A01C4
:1007E000B0912B019C919093280180932501E4E620
:1007F000F0E020E030E080818823C9F0891789F497
:10080000F901EE0FFF1FE20FF31FEC59FF4F0180BC
:10081000F281E02DCD0166E271E00995809325011A
:1008200006C02F5F3F4F33962031310521F780916D
:100830002901882349F190912501992399F0E091AC
:100840002A01F0912B018091280180688083E0913A
:100850002A01F0912B01918382E090E0909327018F
:100860008093260160912A0170912B01409126010D
:1008700050912701E0912301F09124018091220100
:10088000099502C086E001C080E00F90CF91DF9112
:100890000895CF92DF92EF92FF920F93862F690116
:1008A0007A01F894BA01A90128E00E94F40181308C
:1008B00009F581E0C8168BE4D80680E0E80680E000
:1008C000F80668F4A7019601220F331F441F551F35
:1008D00060EA7FE787E190E00E946B0704C023E2B3
:1008E00030E040E050E0C9010E94AA02813011F4DA
:1008F00080E001C083E078940F91FF90EF90DF904B
:10090000CF900895F8941092330181E060E00E9446
:10091000E0010E948F0278940895F89480E060E0EE
:100920000E94E0010E94A00278940895EF92FF9245
:100930000F931F93CF93DF938C017B01EA01F8940F
:100940008091390190913A0184309105E0F06091F5
:10095000390170913A0185E491E00E94A901009764
:1009600091F480914501F801808380913901909143
:100970003A0103979983888386E491E0F701918394
:10098000808380E001C085E07894DF91CF911F9152
:100990000F91FF90EF9008951F93F89410913301F9
:1009A000113009F042C0FB013197F0933801E09318
:1009B000370121E030E03093360120933501808308
:1009C0008091350190913601840F951F90933601E7
:1009D000809335016091350170913601CF010E94FD
:1009E000A901492F2091350130913601F901EB5BC6
:1009F000FE4F80832F5F3F4F3093360120933501A8
:100A00008091350190913601FC01EB5BFE4F4083F4
:100A1000019690933601809335011093340180E064
:100A200061E00E94E00180E001C085E078941F91C0
:100A30000895DF93CF930F92CDB7DEB7CE01019625
:100A40000E94310280913301813039F0813098F178
:100A50008230B9F0833089F52EC010923A0110929D
:100A600039018091390190913A012981FC01EB5BB8
:100A7000FE4F2083019690933A018093390182E0E2
:100A800018C08091390190913A018F3F910509F08A
:100A900078F48091390190913A012981FC01EB5B56
:100AA000FE4F2083019690933A018093390103C051
:100AB00083E0809333010E948F0280E00F90CF91FA
:100AC000DF9108951F9380913401882319F08130BC
:100AD00089F505C081E060E00E94E0012BC08091B3
:100AE0003501909136010097D1F0E0913701F091F6
:100AF000380180810E942E02809137019091380147
:100B0000019690933801809337018091350190913F
:100B10003601019790933601809335010BC083E035
:100B20000E94CB01182F81E060E00E94E00110924A
:100B3000340101C010E0812F1F910895DF93CF93FE
:100B40000F92CDB7DEB780913301882319F0823040
:100B500039F402C080E001C081E00E94CB0101C0F5
:100B600080E089830E94A00291E090933301898103
:100B70000F90CF91DF910895FB01208131812530C5
:100B80003105A1F4FC01318120E0628170E0622B2B
:100B9000732B6F5F7F4F039641E050E021E00E948E
:100BA0006401882329F00E944207089583E0089594
:100BB00080E00895CF93DF93FC01EB018881998158
:100BC0008630910548F121816281938180E04481E2
:100BD00050E0482B592B3581CA0101978837910580
:100BE000D8F4842F880F3817B9F4922F80E070E082
:100BF000682B792B6F5F7F4FCF01069621E00E9413
:100C00006401882319F00E94420707C085E090E044
:100C10009983888380E001C083E0DF91CF910895BC
:100C20000F931F93CF93DF93FC01EB018881998190
:100C300085309105C9F5CF010196518162814481CA
:100C4000042F10E09801215030402D37310560F518
:100C50001982188223E02083288139812F5F3F4F3A
:100C600039832883440F4183288139812F5F3F4F87
:100C700039832883352F20E070E0622B732B6F5F60
:100C80007F4F0196A8010E946401882319F00E94F9
:100C900042070BC0000F111F88819981800F911F9F
:100CA0009983888380E001C083E0DF91CF911F9119
:100CB0000F910895AF92BF92CF92DF92EF92FF9281
:100CC0000F931F93CF93DF93EC018B01FB01808186
:100CD00091818A30910508F46AC06E010894C11CA4
:100CE000D11CB980AA809B8180E0EC80FF24E82A97
:100CF000F92A7D816E819F814885898597012150E0
:100D000030402D37310508F054C0392F20E050E035
:100D1000422B532B4115510509F44BC04A3751055D
:100D200008F047C09A01220F331F90E028173907B7
:100D300009F03FC0972F80E070E0682B792B6F5F40
:100D40007F4FCE010A9621E00E946401882361F55D
:100D5000F8011182108287E1888380819181019658
:100D6000918380838E2D880F898380819181019664
:100D7000918380839B2D80E06A2D70E0682B792B16
:100D80006F5F7F4FC6010196A70120E00E946401BA
:100D9000882351F4EE0CFF1CF801808191818E0DA7
:100DA0009F1D9183808303C00E94420703C080E09F
:100DB00001C083E0DF91CF911F910F91FF90EF90E1
:100DC000DF90CF90BF90AF900895CF93DF9330E046
:100DD000EB0153E0D695C7955A95E1F767707070AF
:100DE000E1E0F0E002C0EE0FFF1F4A95E2F7319715
:100DF000DC01AC0FBD1F4C9150E02196C80FD91FEC
:100E0000988180E0482B592B062E02C0EE0FFF1F61
:100E10000A94E2F7E095F0954E235F2302C0220F7B
:100E2000331F6A95E2F7422B532B4C935883DF9183
:100E3000CF9108959B01F3E036952795FA95E1F758
:100E4000DC01A20FB31F8C9190E01196FC911197D9
:100E5000E0E08E2B9F2BE3E0220F331FEA95E1F7B2
:100E6000621B730B02C0969587956A95E2F721E0A5
:100E700030E002C0220F331F4A95E2F72150304084
:100E800082230895883030F4E82FF0E0EC56FF4FCD
:100E90008081089584E00895629FD001739FF001DE
:100EA000829FE00DF11D649FE00DF11D929FF00DFA
:100EB000839FF00D749FF00D659FF00D9927729F31
:100EC000B00DE11DF91F639FB00DE11DF91FBD01BC
:100ED000CF0111240895A1E21A2EAA1BBB1BFD010C
:100EE0000DC0AA1FBB1FEE1FFF1FA217B307E40709
:100EF000F50720F0A21BB30BE40BF50B661F771F61
:100F0000881F991F1A9469F7609570958095909540
:0E0F10009B01AC01BD01CF010895F894FFCF05
:100F1E000030200203100610DA0506BC05175A062B
:100F2E0000000000000000000000000000000000B3
:100F3E0000000000000000000000000000000000A3
:0C0F4E000000000000020404040404067B
:00000001FF
