:100000001CC136C135C134C133C132C153C730C13F
:100010002FC12EC12DC1EAC6C2C60FC729C128C132
:1000200027C126C125C183C185C187C189C18BC1B3
:100030008EC190C192C196C19CC100C1814001C0D6
:10004000804101C0804100C1814001C0804100C1A8
:10005000814000C1814001C0804101C0804100C198
:10006000814000C1814001C0804100C1814001C088
:10007000804101C0804100C1814001C0804100C178
:10008000814000C1814001C0804100C1814001C068
:10009000804101C0804100C1814000C1814001C058
:1000A000804101C0804100C1814001C0804100C148
:1000B000814000C1814001C0804101C0804100C138
:1000C000814000C1814001C0804100C1814001C028
:1000D000804101C0804100C1814000C1814001C018
:1000E000804101C0804100C1814001C0804100C108
:1000F000814000C1814001C0804100C1814001C0F8
:10010000804101C0804100C1814001C0804100C1E7
:10011000814000C1814001C0804101C0804100C1D7
:10012000814000C1814001C0804100C1814001C0C7
:10013000804101C0804100C1814000C0C101C303B2
:1001400002C2C60607C705C5C404CC0C0DCD0FCF2F
:10015000CE0E0ACACB0BC90908C8D81819D91BDB9F
:10016000DA1A1EDEDF1FDD1D1CDC14D4D515D717EF
:1001700016D6D21213D311D1D010F03031F133F39F
:10018000F23236F6F737F53534F43CFCFD3DFF3FEF
:100190003EFEFA3A3BFB39F9F83828E8E929EB2B1F
:1001A0002AEAEE2E2FEF2DEDEC2CE42425E527E7AF
:1001B000E62622E2E323E12120E0A06061A163A31F
:1001C000A26266A6A767A56564A46CACAD6DAF6FAF
:1001D0006EAEAA6A6BAB69A9A86878B8B979BB7B1F
:1001E0007ABABE7E7FBF7DBDBC7CB47475B577B76F
:1001F000B67672B2B373B17170B05090915193539F
:10020000529296565797559594549C5C5D9D5F9F6E
:100210009E5E5A9A9B5B99595898884849894B8B9E
:100220008A4A4E8E8F4F8D4D4C8C4484854587472E
:100230004686824243834181804011241FBECFE520
:10024000D4E0DEBFCDBF10E0A0E6B0E0E0EAFFE022
:1002500002C005900D92AC39B107D9F712E0ACE9B4
:10026000B0E001C01D92A734B107E1F715D096C6E2
:10027000C7CE87B3836087BB84B38F6384BB81B3EE
:10028000886781BB88B3836088BB85B38F6385BB78
:1002900082B3886782BB0895EF920F931F93E9DFC3
:1002A00080E064E040E000E016E920E030E0EE2489
:1002B000AAD0789454D113E074D180919E008F5FBE
:1002C00080939E0080919D00982F9F5F90939D004A
:1002D000612F36D6992381F780919C008F5F8093A0
:1002E0009C00E82FF0E0EE55FF4FE08198B393605B
:1002F00098BB95B39F6395BB92B3986792BB8130CF
:1003000049F0813028F0823041F0833049F407C051
:10031000C19806C0C098AD9803C0969801C0959842
:10032000F0E0EA30F10540F6ED5EFF4F099485B349
:10033000887E1AC085B38B7E08C085B3827F14C0C7
:1003400085B3827E18C085B3817E85BBB5CF85B36A
:10035000847E11C085B3847E07C085B38A7E85BB49
:1003600082B305C085B3807E85BB82B3877E82BBA6
:10037000A3CF85B3807E85BB93989ECF222319F5AA
:100380006A307105F1F542305105D9F52091A00090
:10039000322F3F5F3093A0002F3F29F42091A1001E
:1003A0002F5F2093A10040E009C0F901E256FF4F02
:1003B0005081280F391FF90150834F5F242F30E0FF
:1003C000443099F71AC02130C1F464317105C9F481
:1003D0004F335105A0F4440F551F60E009C0FC01E4
:1003E000E20FF31F70812E553F4FF90170836F5F4D
:1003F000262F30E02417350790F380E0089584E03D
:10040000089584E00895EF920F931F93982F862FFD
:10041000642FA90198010E2D782F7150773F08F0B5
:100420003FC0809320019923D9F5E0EDF4E0F093EB
:100430002D01E0932C01E9EDF4E0F0932B01E09322
:100440002A01E5E1F5E0F0932201E0932101E0EEDD
:10045000F4E0F0931F01E0931E0110922F0110921F
:100460002E01E0E6F5E0F0934201E0934101E7EA76
:10047000F5E0F0933E01E0933D01EFEDF5E0F09300
:100480004001E0933F0156D2082F882361F41AD42B
:10049000882341F01092300181E08093600003C016
:1004A00002E001C003E0802F1F910F91EF900895AB
:1004B00018160CF041C0F8946115710511F1E2E6CF
:1004C000F0E020E030E0408151814115510519F004
:1004D0004617570771F4F901EE0FFF1FE20FF31FE4
:1004E000EF59FF4F8083728361832031310509F515
:1004F00006C02F5F3F4F33962031310521F784E04E
:1005000019C0E1E6F0E020E030E09081981759F45E
:10051000F901EE0FFF1FE20FF31FEF59FF4F10829B
:100520001282118206C02F5F3F4F33962031310572
:1005300061F780E07894089582E0089580916000EA
:10054000813049F4E0912E01F0912F01309729F08C
:10055000099580E0089586E0089580E008958091EF
:100560006000813049F4E0912C01F0912D01099552
:100570001092600080E0089586E008958091600008
:10058000882349F4E0912A01F0912B01099581E03B
:100590008093600002C0813011F480E0089586E00D
:1005A0000895DF93CF930F92CDB7DEB780916000AF
:1005B000882309F07BC0CE0101968FD3813009F0EA
:1005C00077C09981913021F0923009F071C01AC042
:1005D000E0911E01F0911F0187E291E068E271E075
:1005E00044E251E00995882309F062C08091270117
:1005F00090912001891719F0882309F059C082E0F1
:1006000065D356C0A0912801B09129019C91909387
:10061000260180932301E1E6F0E020E030E08081D4
:100620008823C9F0891789F4F901EE0FFF1FE20F43
:10063000F31FEF59FF4F0180F281E02DCD0164E2FD
:1006400071E009958093230106C02F5F3F4F3396D9
:100650002031310521F780912701882349F19091BC
:100660002301992399F0E0912801F09129018091CB
:10067000260180688083E0912801F091290191830F
:1006800082E090E0909325018093240160912801FD
:10069000709129014091240150912501E09121019F
:1006A000F091220180912001099502C086E001C0ED
:1006B00080E00F90CF91DF910895DC014FEF5FEF65
:1006C0000FC02D91842F822790E0FC01E65CFF4F44
:1006D00044914527865C9E4FFC01549161507040C7
:1006E0006115710571F7352F20E0E42FF0E0E22B62
:1006F000F32BCF010895FB01208131812530310595
:1007000091F4FC01318120E0628170E0622B732B57
:100710006F5F7F4F039641E050E021E02FDE88239A
:1007200021F0C6D2089583E0089580E00895CF9324
:10073000DF93FC01EB01888199818630910538F1C6
:1007400021816281938180E0448150E0482B592BC4
:100750003581CA01019788379105C8F4842F880F25
:100760003817A9F4922F80E070E0682B792B6F5F27
:100770007F4FCF01069621E001DE882311F098D249
:1007800007C085E090E09983888380E001C083E022
:10079000DF91CF9108950F931F93CF93DF93FC01C7
:1007A000EB018881998185309105B9F5CF010196DA
:1007B000518162814481042F10E098012150304022
:1007C0002D37310550F51982188223E020832881C6
:1007D00039812F5F3F4F39832883440F418328811C
:1007E00039812F5F3F4F39832883352F20E070E018
:1007F000622B732B6F5F7F4F0196A801BFDD8823AB
:1008000011F056D20BC0000F111F88819981800F03
:10081000911F9983888380E001C083E0DF91CF91AD
:100820001F910F910895AF92BF92CF92DF92EF92F6
:10083000FF920F931F93CF93DF93EC018B01FB018A
:10084000808191818A30910508F466C06E01089418
:10085000C11CD11CB980AA809B8180E0EC80FF2460
:10086000E82AF92A7D816E819F81488589859701D3
:10087000215030402D37310508F050C0392F20E08D
:1008800050E0422B532B4115510509F447C04A371C
:10089000510508F043C09A01220F331F90E028173A
:1008A0003907E1F5972F80E070E0682B792B6F5FB7
:1008B0007F4FCE010A9621E061DD882359F5F801CA
:1008C0001182108287E188838081918101969183D2
:1008D00080838E2D880F89838081918101969183F9
:1008E00080839B2D80E06A2D70E0682B792B6F5FF1
:1008F0007F4FC6010196A70120E040DD882351F417
:10090000EE0CFF1CF801808191818E0D9F1D91835B
:10091000808302C0CDD103C080E001C083E0DF91BD
:10092000CF911F910F91FF90EF90DF90CF90BF90EC
:10093000AF900895CF92DF92EF92FF920F93862FA0
:1009400069017A01F894BA01A90128E0E8D181305F
:10095000F9F481E0C8168BE4D80680E0E80680E070
:10096000F80660F4A7019601220F331F441F551F9C
:1009700060EA7FE787E190E0EFD204C023E230E055
:1009800040E050E0C9017FD2813011F480E001C025
:1009900083E078940F91FF90EF90DF90CF900895CF
:1009A000F8941092310181E060E0A5D151D27894A1
:1009B0000895F89480E060E09ED15BD27894089529
:1009C000EF92FF920F931F93CF93DF938C017B01E4
:1009D000EA01F894809137019091380184309105B3
:1009E000D8F0609137017091380187E491E065DEBD
:1009F000009791F480914701F8018083809137013D
:100A00009091380103979983888388E491E0F701F6
:100A10009183808380E001C085E07894DF91CF915D
:100A20001F910F91FF90EF9008951F93F8941091EC
:100A30003101113009F040C0FB013197F0933601CC
:100A4000E093350121E030E030933401209333010D
:100A500080838091330190913401840F951F90938E
:100A60003401809333016091330170913401CF01DF
:100A700024DE492F2091330130913401F901E95BE3
:100A8000FE4F80832F5F3F4F30933401209333011B
:100A90008091330190913401FC01E95BFE4F40836A
:100AA000019690933401809333011093320180E0DA
:100AB00061E021D180E001C085E078941F91089524
:100AC000DF93CF930F92CDB7DEB7CE01019662D1FF
:100AD00080913101813039F0813098F18230B9F064
:100AE000833081F52EC01092380110923701809129
:100AF0003701909138012981FC01E95BFE4F208389
:100B00000196909338018093370182E018C080915C
:100B10003701909138018F3F910509F078F4809169
:100B20003701909138012981FC01E95BFE4F208358
:100B30000196909338018093370103C083E080933E
:100B4000310186D180E00F90CF91DF9108951F93FE
:100B500080913201882319F0813069F504C081E069
:100B600060E0C9D028C08091330190913401009792
:100B7000C9F0E0913501F0913601808108D1809172
:100B8000350190913601019690933601809335019D
:100B900080913301909134010197909334018093B7
:100BA000330109C083E092D0182F81E060E0A3D028
:100BB0001092320101C010E0812F1F910895DF9340
:100BC000CF930F92CDB7DEB780913101882319F012
:100BD000823031F402C080E001C081E077D001C0F2
:100BE00080E0898346D191E09093310189810F9013
:100BF000CF91DF910895CF93DF9330E0EB0153E085
:100C0000D695C7955A95E1F767707070E1E0F0E00E
:100C100002C0EE0FFF1F4A95E2F73197DC01AC0FDF
:100C2000BD1F4C9150E02196C80FD91F988180E0DC
:100C3000482B592B062E02C0EE0FFF1F0A94E2F735
:100C4000E095F0954E235F2302C0220F331F6A9573
:100C5000E2F7422B532B4C935883DF91CF910895A9
:100C60009B01F3E036952795FA95E1F7DC01A20F99
:100C7000B31F8C9190E01196FC911197E0E08E2BC0
:100C80009F2BE3E0220F331FEA95E1F7621B730B02
:100C900002C0969587956A95E2F721E030E002C0A0
:100CA000220F331F4A95E2F72150304082230895E6
:100CB000883030F4E82FF0E0EF56FF4F8081089540
:100CC00084E008951092390181E0089591E09093B5
:100CD000390180933A0181E008952091390122235E
:100CE00041F020913A01FC0120831092390181E00A
:100CF000089580E008959AB198649AB9882319F00C
:100D00008AB1806902C08AB18F768AB9662329F0D8
:100D10008AB188628AB9929A089555980895CF92B7
:100D2000DF92EF92FF920F931F936A017B01122FC4
:100D300084E0CC0CDD1CEE1CFF1C8A95D1F760E032
:100D400070E880E790E0A701960106D1215029B90B
:100D5000033030F4E02FF0E0E756FF4F808101C010
:100D600080E0173021F0183019F4866001C08460EB
:100D7000806880BD80E060E0BEDF8A9A929881E062
:100D80001F910F91FF90EF90DF90CF9008958CB955
:100D900081E008952CB1FC01208381E008951F9229
:100DA0000F920FB60F9211242F933F934F935F939F
:100DB0006F937F938F939F93AF93BF93EF93FF9323
:100DC000E0913D01F0913E010995FF91EF91BF91B6
:100DD000AF919F918F917F916F915F914F913F91D3
:100DE0002F910F900FBE0F901F9018951F920F928A
:100DF0000FB60F9211242F933F934F935F936F93EE
:100E00007F938F939F93AF93BF93EF93FF93E09163
:100E10004101F09142010995FF91EF91BF91AF918E
:100E20009F918F917F916F915F914F913F912F9102
:100E30000F900FBE0F901F9018951F920F920FB634
:100E40000F92112492980F900FBE0F901F9018953B
:100E50001DBC1CBC80913B0190913C01009729F086
:100E600029B7206129BF9BBD8ABD8EB585608EBD27
:100E700008958EB58A7F8EBD89B78F7E89BF88B76A
:100E8000806188BF0895BC0180E090E020E23CE1F1
:100E900040E050E036D020E23EE440E050E05CD05C
:100EA00030933C0120933B011FBC1EBC1FBCE1DF03
:100EB00081E008951F920F920FB60F9211242F9385
:100EC0003F934F935F936F937F938F939F93AF93D2
:100ED000BF93EF93FF93E0913F01F091400109959B
:100EE000FF91EF91BF91AF919F918F917F916F9102
:100EF0005F914F913F912F910F900FBE0F901F90D8
:100F00001895629FD001739FF001829FE00DF11D43
:100F1000649FE00DF11D929FF00D839FF00D749F73
:100F2000F00D659FF00D9927729FB00DE11DF91F1F
:100F3000639FB00DE11DF91FBD01CF01112408957C
:100F4000991B79E004C0991F961708F0961B881F1B
:100F50007A95C9F780950895A1E21A2EAA1BBB1BAA
:100F6000FD010DC0AA1FBB1FEE1FFF1FA217B30775
:100F7000E407F50720F0A21BB30BE40BF50B661F8B
:100F8000771F881F991F1A9469F76095709580954F
:100F900090959B01AC01BD01CF010895F894FFCF5E
:100FA0000203CB03109703067B0317130400000012
:100FB0000000000000000000000000000000000031
:100FC0000000000000000000000000000000000021
:0C0FD000000002040404040406003020A9
:00000001FF
