:100000001CC136C135C134C133C132C168C730C12A
:100010002FC12EC12DC1FFC6D7C624C729C128C1F3
:1000200027C126C125C180C182C184C186C188C1C2
:100030008BC18DC18FC193C199C100C1814001C0E5
:10004000804101C0804100C1814001C0804100C1A8
:10005000814000C1814001C0804101C0804100C198
:10006000814000C1814001C0804100C1814001C088
:10007000804101C0804100C1814001C0804100C178
:10008000814000C1814001C0804100C1814001C068
:10009000804101C0804100C1814000C1814001C058
:1000A000804101C0804100C1814001C0804100C148
:1000B000814000C1814001C0804101C0804100C138
:1000C000814000C1814001C0804100C1814001C028
:1000D000804101C0804100C1814000C1814001C018
:1000E000804101C0804100C1814001C0804100C108
:1000F000814000C1814001C0804100C1814001C0F8
:10010000804101C0804100C1814001C0804100C1E7
:10011000814000C1814001C0804101C0804100C1D7
:10012000814000C1814001C0804100C1814001C0C7
:10013000804101C0804100C1814000C0C101C303B2
:1001400002C2C60607C705C5C404CC0C0DCD0FCF2F
:10015000CE0E0ACACB0BC90908C8D81819D91BDB9F
:10016000DA1A1EDEDF1FDD1D1CDC14D4D515D717EF
:1001700016D6D21213D311D1D010F03031F133F39F
:10018000F23236F6F737F53534F43CFCFD3DFF3FEF
:100190003EFEFA3A3BFB39F9F83828E8E929EB2B1F
:1001A0002AEAEE2E2FEF2DEDEC2CE42425E527E7AF
:1001B000E62622E2E323E12120E0A06061A163A31F
:1001C000A26266A6A767A56564A46CACAD6DAF6FAF
:1001D0006EAEAA6A6BAB69A9A86878B8B979BB7B1F
:1001E0007ABABE7E7FBF7DBDBC7CB47475B577B76F
:1001F000B67672B2B373B17170B05090915193539F
:10020000529296565797559594549C5C5D9D5F9F6E
:100210009E5E5A9A9B5B99595898884849894B8B9E
:100220008A4A4E8E8F4F8D4D4C8C4484854587472E
:100230004686824243834181804011241FBECFE520
:10024000D4E0DEBFCDBF10E0A0E6B0E0EAECFFE016
:1002500002C005900D92A03AB107D9F712E0A0EACA
:10026000B0E001C01D92AB34B107E1F715D0ABC6C9
:10027000C7CE87B3836087BB84B38F6384BB81B3EE
:10028000886781BB88B3836088BB85B38F6385BB78
:1002900082B3886782BB0895EF920F931F93E9DFC3
:1002A00080E064E640E000E016E920E030E0EE2483
:1002B000BFD0789469D18AD18091A2008F5F80935A
:1002C000A2008091A100982F9F5F9093A10080FDD4
:1002D000F2CF8091A0008F5F8093A000E82FF0E024
:1002E000E05AFF4FE08198B3936098BB95B39F634A
:1002F00095BB92B3986792BB813049F0813028F06A
:10030000823041F0833049F407C0C19806C0C098DC
:10031000AD9803C0969801C09598F0E0EA30F105D9
:1003200050F6ED5EFF4F099485B3887E1AC085B301
:100330008B7E08C085B3827F14C085B3827E18C0CF
:1003400085B3817E85BBB7CF85B3847E11C085B36D
:10035000847E07C085B38A7E85BB82B305C085B322
:10036000807E85BB82B3877E82BBA5CF85B3807E2E
:1003700085BB9398A0CF222329F56A30710509F037
:1003800055C04230510509F051C02091A400322FD0
:100390003F5F3093A4002F3F29F42091A5002F5FE9
:1003A0002093A50040E009C0F901EE55FF4F5081B0
:1003B000280F391FF90150834F5F242F30E044305C
:1003C00099F730C0213071F56431710579F54F33FB
:1003D000510550F5440F551F60E009C0FC01E20FC4
:1003E000F31F70812A553F4FF90170836F5F262FED
:1003F00030E02417350790F38091A7002AE0622FA0
:10040000B4D5809360008091A700AFD59093610030
:100410008091A600AAD5809362008091A600A5D500
:100420009093630080E0089584E0089584E0089547
:10043000EF920F931F93982F862F642FA901980195
:100440000E2D782F7150773F08F03FC08093240124
:100450009923D9F5E5EEF4E0F0933101E093300112
:10046000EEEEF4E0F0932F01E0932E01EAE2F5E0E6
:10047000F0932601E0932501E5EFF4E0F0932301EA
:10048000E09322011092330110923201E5E7F5E08A
:10049000F0934601E0934501ECEBF5E0F093420167
:1004A000E0934101E4EFF5E0F0934401E093430170
:1004B00056D2082F882361F41AD4882341F0109271
:1004C000340181E08093640003C002E001C003E0D6
:1004D000802F1F910F91EF90089518160CF041C0D6
:1004E000F8946115710511F1E6E6F0E020E030E0E6
:1004F000408151814115510519F04617570771F494
:10050000F901EE0FFF1FE20FF31FEB59FF4F80833E
:10051000728361832031310509F506C02F5F3F4F9B
:1005200033962031310521F784E019C0E5E6F0E08B
:1005300020E030E09081981759F4F901EE0FFF1F89
:10054000E20FF31FEB59FF4F10821282118206C097
:100550002F5F3F4F33962031310561F780E078946B
:10056000089582E0089580916400813049F4E0911B
:100570003201F0913301309729F0099580E0089518
:1005800086E0089580E0089580916400813049F408
:10059000E0913001F091310109951092640080E002
:1005A000089586E0089580916400882349F4E091DD
:1005B0002E01F0912F01099581E08093640002C023
:1005C000813011F480E0089586E00895DF93CF93A1
:1005D0000F92CDB7DEB780916400882309F07BC00D
:1005E000CE0101968FD3813009F077C09981913087
:1005F00021F0923009F071C01AC0E0912201F0910F
:1006000023018BE291E06CE271E048E251E0099550
:10061000882309F062C080912B01909124018917F1
:1006200019F0882309F059C082E065D356C0A09123
:100630002C01B0912D019C9190932A018093270168
:10064000E5E6F0E020E030E080818823C9F08917FA
:1006500089F4F901EE0FFF1FE20FF31FEB59FF4F73
:100660000180F281E02DCD0168E271E0099580936F
:10067000270106C02F5F3F4F33962031310521F708
:1006800080912B01882349F190912701992399F0BA
:10069000E0912C01F0912D0180912A0180688083E6
:1006A000E0912C01F0912D01918382E090E09093F4
:1006B00029018093280160912C0170912D014091B6
:1006C000280150912901E0912501F09126018091A6
:1006D0002401099502C086E001C080E00F90CF910F
:1006E000DF910895DC014FEF5FEF0FC02D91842F54
:1006F000822790E0FC01E65CFF4F44914527865C31
:100700009E4FFC015491615070406115710571F765
:10071000352F20E0E42FF0E0E22BF32BCF010895FA
:10072000FB01208131812530310591F4FC013181BB
:1007300020E0628170E0622B732B6F5F7F4F039626
:1007400041E050E021E017DE882321F0C6D2089571
:1007500083E0089580E00895CF93DF93FC01EB01DF
:10076000888199818630910538F121816281938158
:1007700080E0448150E0482B592B3581CA01019714
:1007800088379105C8F4842F880F3817A9F4922F61
:1007900080E070E0682B792B6F5F7F4FCF0106966A
:1007A00021E0E9DD882311F098D207C085E090E0D0
:1007B0009983888380E001C083E0DF91CF91089521
:1007C0000F931F93CF93DF93FC01EB0188819981F5
:1007D00085309105B9F5CF0101965181628144813F
:1007E000042F10E09801215030402D37310550F58D
:1007F0001982188223E02083288139812F5F3F4F9F
:1008000039832883440F4183288139812F5F3F4FEB
:1008100039832883352F20E070E0622B732B6F5FC4
:100820007F4F0196A801A7DD882311F056D20BC097
:10083000000F111F88819981800F911F99838883F0
:1008400080E001C083E0DF91CF911F910F91089567
:10085000AF92BF92CF92DF92EF92FF920F931F93CE
:10086000CF93DF93EC018B01FB01808191818A3072
:10087000910508F466C06E010894C11CD11CB980B2
:10088000AA809B8180E0EC80FF24E82AF92A7D8100
:100890006E819F81488589859701215030402D3791
:1008A000310508F050C0392F20E050E0422B532B87
:1008B0004115510509F447C04A37510508F043C0B6
:1008C0009A01220F331F90E028173907E1F5972F7F
:1008D00080E070E0682B792B6F5F7F4FCE010A9626
:1008E00021E049DD882359F5F8011182108287E162
:1008F0008883808191810196918380838E2D880FDA
:100900008983808191810196918380839B2D80E0F2
:100910006A2D70E0682B792B6F5F7F4FC6010196BF
:10092000A70120E028DD882351F4EE0CFF1CF8011C
:10093000808191818E0D9F1D9183808302C0CDD1D6
:1009400003C080E001C083E0DF91CF911F910F9140
:10095000FF90EF90DF90CF90BF90AF900895CF922F
:10096000DF92EF92FF920F93862F69017A01F8943C
:10097000BA01A90128E0E8D18130F9F481E0C81674
:100980008BE4D80680E0E80680E0F80660F4A70172
:100990009601220F331F441F551F60EA7FE787E14E
:1009A00090E0EFD204C023E230E040E050E0C90123
:1009B0007FD2813011F480E001C083E078940F9100
:1009C000FF90EF90DF90CF900895F894109235014A
:1009D00081E060E0A5D151D278940895F89480E048
:1009E00060E09ED15BD278940895EF92FF920F93CE
:1009F0001F93CF93DF938C017B01EA01F8948091E0
:100A00003B0190913C0184309105D8F060913B010D
:100A100070913C018BE491E065DE009791F4809148
:100A20004B01F801808380913B0190913C01039739
:100A3000998388838CE491E0F7019183808380E03F
:100A400001C085E07894DF91CF911F910F91FF90C5
:100A5000EF9008951F93F89410913501113009F02B
:100A600040C0FB013197F0933A01E093390121E056
:100A700030E0309338012093370180838091370133
:100A800090913801840F951F90933801809337011E
:100A90006091370170913801CF0124DE492F2091F8
:100AA000370130913801F901E55BFE4F80832F5FFC
:100AB0003F4F309338012093370180913701909157
:100AC0003801FC01E55BFE4F4083019690933801AD
:100AD000809337011093360180E061E021D180E0FE
:100AE00001C085E078941F910895DF93CF930F9212
:100AF000CDB7DEB7CE01019662D18091350181304C
:100B000039F0813098F18230B9F0833081F52EC010
:100B100010923C0110923B0180913B0190913C016D
:100B20002981FC01E55BFE4F2083019690933C01F7
:100B300080933B0182E018C080913B0190913C0181
:100B40008F3F910509F078F480913B0190913C0131
:100B50002981FC01E55BFE4F2083019690933C01C7
:100B600080933B0103C083E08093350186D180E010
:100B70000F90CF91DF9108951F93809136018823C4
:100B800019F0813069F504C081E060E0C9D028C067
:100B900080913701909138010097C9F0E0913901B7
:100BA000F0913A01808108D18091390190913A0108
:100BB000019690933A018093390180913701909189
:100BC00038010197909338018093370109C083E081
:100BD00092D0182F81E060E0A3D01092360101C0BE
:100BE00010E0812F1F910895DF93CF930F92CDB71F
:100BF000DEB780913501882319F0823031F402C0CC
:100C000080E001C081E077D001C080E0898346D1D7
:100C100091E09093350189810F90CF91DF910895F4
:100C2000CF93DF9330E0EB0153E0D695C7955A950B
:100C3000E1F767707070E1E0F0E002C0EE0FFF1FB7
:100C40004A95E2F73197DC01AC0FBD1F4C9150E0A3
:100C50002196C80FD91F988180E0482B592B062E6A
:100C600002C0EE0FFF1F0A94E2F7E095F0954E23C5
:100C70005F2302C0220F331F6A95E2F7422B532BEA
:100C80004C935883DF91CF9108959B01F3E0369503
:100C90002795FA95E1F7DC01A20FB31F8C9190E044
:100CA0001196FC911197E0E08E2B9F2BE3E0220F31
:100CB000331FEA95E1F7621B730B02C09695879587
:100CC0006A95E2F721E030E002C0220F331F4A9517
:100CD000E2F72150304082230895883030F4E82F25
:100CE000F0E0EB56FF4F8081089584E00895109264
:100CF0003D0181E0089591E090933D0180933E0194
:100D000081E0089520913D01222341F020913E0190
:100D1000FC01208310923D0181E0089580E0089558
:100D20009AB198649AB9882319F08AB1806902C08F
:100D30008AB18F768AB9662329F08AB188628AB926
:100D4000929A089555980895CF92DF92EF92FF926C
:100D50000F931F936A017B01122F84E0CC0CDD1CE2
:100D6000EE1CFF1C8A95D1F760E070E880E790E008
:100D7000A701960106D1215029B9033030F4E02FA4
:100D8000F0E0E356FF4F808101C080E0173021F092
:100D9000183019F4866001C08460806880BD80E0EE
:100DA00060E0BEDF8A9A929881E01F910F91FF90D8
:100DB000EF90DF90CF9008958CB981E008952CB129
:100DC000FC01208381E008951F920F920FB60F92CD
:100DD00011242F933F934F935F936F937F938F9340
:100DE0009F93AF93BF93EF93FF93E0914101F091F5
:100DF00042010995FF91EF91BF91AF919F918F9122
:100E00007F916F915F914F913F912F910F900FBE06
:100E10000F901F9018951F920F920FB60F921124EA
:100E20002F933F934F935F936F937F938F939F93F2
:100E3000AF93BF93EF93FF93E0914501F09146018B
:100E40000995FF91EF91BF91AF919F918F917F9104
:100E50006F915F914F913F912F910F900FBE0F9027
:100E60001F9018951F920F920FB60F92112492980F
:100E70000F900FBE0F901F9018951DBC1CBC809149
:100E80003F0190914001009729F029B7206129BFC7
:100E90009BBD8ABD8EB585608EBD08958EB58A7F57
:100EA0008EBD89B78F7E89BF88B7806188BF08955E
:100EB000BC0180E090E020E23CE140E050E036D030
:100EC00020E23EE440E050E05CD0309340012093CB
:100ED0003F011FBC1EBC1FBCE1DF81E008951F92D3
:100EE0000F920FB60F9211242F933F934F935F935E
:100EF0006F937F938F939F93AF93BF93EF93FF93E2
:100F0000E0914301F09144010995FF91EF91BF9168
:100F1000AF919F918F917F916F915F914F913F9191
:100F20002F910F900FBE0F901F901895629FD001C8
:100F3000739FF001829FE00DF11D649FE00DF11D94
:100F4000929FF00D839FF00D749FF00D659FF00D43
:100F50009927729FB00DE11DF91F639FB00DE11D30
:100F6000F91FBD01CF0111240895991B79E004C038
:100F7000991F961708F0961B881F7A95C9F78095D8
:100F80000895A1E21A2EAA1BBB1BFD010DC0AA1FCA
:100F9000BB1FEE1FFF1FA217B307E407F50720F0E2
:100FA000A21BB30BE40BF50B661F771F881F991F5D
:100FB0001A9469F760957095809590959B01AC01A6
:0A0FC000BD01CF010895F894FFCFA2
:100FCA00080808080203E00310AC03069003172878
:100FDA000400000000000000000000000000000003
:100FEA0000000000000000000000000000000000F7
:100FFA00000000000000020404040404060030207B
:00000001FF
